{"src/JasmineMinter.sol":{"JasmineMinter":{"abi":[{"inputs":[{"internalType":"address","name":"_token","type":"address"},{"internalType":"address","name":"_oracle","type":"address"}],"stateMutability":"nonpayable","type":"constructor"},{"anonymous":false,"inputs":[{"indexed":false,"internalType":"address","name":"previousAdmin","type":"address"},{"indexed":false,"internalType":"address","name":"newAdmin","type":"address"}],"name":"AdminChanged","type":"event"},{"anonymous":false,"inputs":[{"indexed":true,"internalType":"address","name":"beacon","type":"address"}],"name":"BeaconUpgraded","type":"event"},{"anonymous":false,"inputs":[{"indexed":true,"internalType":"address","name":"newBridge","type":"address"}],"name":"BridgeChanged","type":"event"},{"anonymous":false,"inputs":[{"indexed":true,"internalType":"address","name":"owner","type":"address"},{"indexed":false,"internalType":"uint256[]","name":"ids","type":"uint256[]"},{"indexed":false,"internalType":"uint256[]","name":"amounts","type":"uint256[]"},{"indexed":false,"internalType":"bytes","name":"metadata","type":"bytes"}],"name":"BurnedBatch","type":"event"},{"anonymous":false,"inputs":[{"indexed":true,"internalType":"address","name":"owner","type":"address"},{"indexed":false,"internalType":"uint256","name":"id","type":"uint256"},{"indexed":false,"internalType":"uint256","name":"amount","type":"uint256"},{"indexed":false,"internalType":"bytes","name":"metadata","type":"bytes"}],"name":"BurnedSingle","type":"event"},{"anonymous":false,"inputs":[{"indexed":false,"internalType":"uint8","name":"version","type":"uint8"}],"name":"Initialized","type":"event"},{"anonymous":false,"inputs":[{"indexed":true,"internalType":"bytes32","name":"nonce","type":"bytes32"}],"name":"NonceConsumed","type":"event"},{"anonymous":false,"inputs":[{"indexed":true,"internalType":"address","name":"previousOwner","type":"address"},{"indexed":true,"internalType":"address","name":"newOwner","type":"address"}],"name":"OwnershipTransferStarted","type":"event"},{"anonymous":false,"inputs":[{"indexed":true,"internalType":"address","name":"previousOwner","type":"address"},{"indexed":true,"internalType":"address","name":"newOwner","type":"address"}],"name":"OwnershipTransferred","type":"event"},{"anonymous":false,"inputs":[{"indexed":true,"internalType":"address","name":"implementation","type":"address"}],"name":"Upgraded","type":"event"},{"inputs":[],"name":"CONSUMENONCE_TYPEHASH","outputs":[{"internalType":"bytes32","name":"","type":"bytes32"}],"stateMutability":"view","type":"function"},{"inputs":[],"name":"DOMAIN_SEPARATOR","outputs":[{"internalType":"bytes32","name":"","type":"bytes32"}],"stateMutability":"view","type":"function"},{"inputs":[],"name":"MINTBATCH_TYPEHASH","outputs":[{"internalType":"bytes32","name":"","type":"bytes32"}],"stateMutability":"view","type":"function"},{"inputs":[],"name":"MINT_TYPEHASH","outputs":[{"internalType":"bytes32","name":"","type":"bytes32"}],"stateMutability":"view","type":"function"},{"inputs":[],"name":"acceptOwnership","outputs":[],"stateMutability":"nonpayable","type":"function"},{"inputs":[],"name":"bridge","outputs":[{"internalType":"address","name":"","type":"address"}],"stateMutability":"view","type":"function"},{"inputs":[{"internalType":"uint256","name":"id","type":"uint256"},{"internalType":"uint256","name":"amount","type":"uint256"},{"internalType":"bytes","name":"metadata","type":"bytes"}],"name":"burn","outputs":[],"stateMutability":"nonpayable","type":"function"},{"inputs":[{"internalType":"uint256[]","name":"ids","type":"uint256[]"},{"internalType":"uint256[]","name":"amounts","type":"uint256[]"},{"internalType":"bytes","name":"metadata","type":"bytes"}],"name":"burnBatch","outputs":[],"stateMutability":"nonpayable","type":"function"},{"inputs":[{"internalType":"bytes32","name":"nonce","type":"bytes32"},{"internalType":"bytes","name":"sig","type":"bytes"}],"name":"consumeNonce","outputs":[],"stateMutability":"nonpayable","type":"function"},{"inputs":[{"internalType":"bytes32","name":"","type":"bytes32"}],"name":"consumedNonces","outputs":[{"internalType":"bool","name":"","type":"bool"}],"stateMutability":"view","type":"function"},{"inputs":[{"internalType":"string","name":"initialName","type":"string"},{"internalType":"string","name":"initialVersion","type":"string"},{"internalType":"address","name":"initialBridge","type":"address"},{"internalType":"address","name":"initialOwner","type":"address"}],"name":"initialize","outputs":[],"stateMutability":"nonpayable","type":"function"},{"inputs":[{"internalType":"address","name":"receiver","type":"address"},{"internalType":"uint256","name":"id","type":"uint256"},{"internalType":"uint256","name":"amount","type":"uint256"},{"internalType":"bytes","name":"transferData","type":"bytes"},{"internalType":"bytes","name":"oracleData","type":"bytes"},{"internalType":"uint256","name":"deadline","type":"uint256"},{"internalType":"bytes32","name":"nonce","type":"bytes32"},{"internalType":"bytes","name":"sig","type":"bytes"}],"name":"mint","outputs":[],"stateMutability":"nonpayable","type":"function"},{"inputs":[{"internalType":"address","name":"receiver","type":"address"},{"internalType":"uint256[]","name":"ids","type":"uint256[]"},{"internalType":"uint256[]","name":"amounts","type":"uint256[]"},{"internalType":"bytes","name":"transferData","type":"bytes"},{"internalType":"bytes[]","name":"oracleDatas","type":"bytes[]"},{"internalType":"uint256","name":"deadline","type":"uint256"},{"internalType":"bytes32","name":"nonce","type":"bytes32"},{"internalType":"bytes","name":"sig","type":"bytes"}],"name":"mintBatch","outputs":[],"stateMutability":"nonpayable","type":"function"},{"inputs":[],"name":"name","outputs":[{"internalType":"string","name":"","type":"string"}],"stateMutability":"view","type":"function"},{"inputs":[],"name":"oracle","outputs":[{"internalType":"address","name":"","type":"address"}],"stateMutability":"view","type":"function"},{"inputs":[],"name":"owner","outputs":[{"internalType":"address","name":"","type":"address"}],"stateMutability":"view","type":"function"},{"inputs":[],"name":"pendingOwner","outputs":[{"internalType":"address","name":"","type":"address"}],"stateMutability":"view","type":"function"},{"inputs":[],"name":"proxiableUUID","outputs":[{"internalType":"bytes32","name":"","type":"bytes32"}],"stateMutability":"view","type":"function"},{"inputs":[],"name":"renounceOwnership","outputs":[],"stateMutability":"nonpayable","type":"function"},{"inputs":[{"internalType":"address","name":"newBridge","type":"address"}],"name":"setBridge","outputs":[],"stateMutability":"nonpayable","type":"function"},{"inputs":[],"name":"token","outputs":[{"internalType":"address","name":"","type":"address"}],"stateMutability":"view","type":"function"},{"inputs":[{"internalType":"address","name":"newOwner","type":"address"}],"name":"transferOwnership","outputs":[],"stateMutability":"nonpayable","type":"function"},{"inputs":[{"internalType":"address","name":"newImplementation","type":"address"}],"name":"upgradeTo","outputs":[],"stateMutability":"nonpayable","type":"function"},{"inputs":[{"internalType":"address","name":"newImplementation","type":"address"},{"internalType":"bytes","name":"data","type":"bytes"}],"name":"upgradeToAndCall","outputs":[],"stateMutability":"payable","type":"function"},{"inputs":[],"name":"version","outputs":[{"internalType":"string","name":"","type":"string"}],"stateMutability":"view","type":"function"}],"devdoc":{"details":"This contract is upgradeable. You can only append new contracts to the list of bases. You cannot delete bases or reorder them.","kind":"dev","methods":{"acceptOwnership()":{"details":"The new owner accepts the ownership transfer."},"burn(uint256,uint256,bytes)":{"details":"JasmineMinter must be approved to spend the caller's EATs for the operation to succeed. JasmineMinter indirectly authenticates that the caller owns the specified amount of the specified EATs.","params":{"amount":"The amount of EAT of the specified series to be redeemed/bridged-off.","id":"The series of EAT to be redeemed/bridged-off.","metadata":"Message to the bridge specifying whether to redeem or bridge-off. If the operation is a bridge-off, also specifies the destination of the EAC. JasmineMinter imposes no authentication or structure on the metadata. Malformed or otherwise invalid metadata is an unrecoverable error."}},"burnBatch(uint256[],uint256[],bytes)":{"details":"JasmineMinter must be approved to spend the caller's EATs for the operation to succeed. JasmineMinter indirectly authenticates that the caller owns the specified amount of the specified EATs.","params":{"amounts":"The amounts of EATs of the specified series to be redeemed/bridged-off.","ids":"The series of EATs to be redeemed/bridged-off.","metadata":"Message to the bridge specifying whether to redeem or bridge-off. If the operation is a bridge-off, also specifies the destination of the EAC. JasmineMinter imposes no authentication or structure on the metadata. Malformed or otherwise invalid metadata is an unrecoverable error."}},"mint(address,uint256,uint256,bytes,bytes,uint256,bytes32,bytes)":{"params":{"amount":"The quantity of EATs to mint. The amount is part of the EIP712 minting authorization.","deadline":"The latest timestamp at which the mint authorization remains valid. After this time, attempts to mint will revert. The deadline is part of the EIP712 minting authorization.","id":"The identifier of the EAT series to mint. See JasmineOracle for the constraints on this value. The id is part of the EIP712 minting authorization.","nonce":"Used to prevent signature replay. The nonce is part of the EIP712 minting authorization. If consumedNonces(nonce), the minting authorization is invalid.","oracleData":"Authenticated EAT metadata passed to the oracle. Oracle updates are idempotent. The oracleData is part of the EIP712 minting authorization.","receiver":"The initial owner of the newly-minted EATs. If this is a contract, it must support IERC1155Receiver.onERC1155Received. Failure of the receiver callback does not invalidate the nonce. The receiver is NOT part of the EIP712 minting authorization.","sig":"Encoded ECDSA signature by `bridge` over the EIP712 minting authorization. Formed as the 65-byte concatenation of r, s, and v in that order. s must be in the lower half of the curve. v must be 27 or 28.","transferData":"Additional argument to be passed to `receiver`'s callback. Ignored if `receiver` is not a contract. The transferData is NOT part of the EIP712 minting authorization."}},"mintBatch(address,uint256[],uint256[],bytes,bytes[],uint256,bytes32,bytes)":{"params":{"amounts":"The quantities of EATs to mint. The amounts are part of the EIP712 minting authorization.","deadline":"The latest timestamp at which the mint authorization remains valid. After this time, attempts to mint will revert. The deadline is part of the EIP712 minting authorization.","ids":"The identifiers of the EAT series to mint. See JasmineOracle for the constraints on this value. The ids are part of the EIP712 minting authorization.","nonce":"Used to prevent signature replay. The nonce is part of the EIP712 minting authorization. If consumedNonces(nonce), the minting authorization is invalid.","oracleDatas":"Authenticated EAT metadatas passed to the oracle. Oracle updates are idempotent. The oracleData is part of the EIP712 minting authorization.","receiver":"The initial owner of the newly-minted EATs. If this is a contract, it must support IERC1155Receiver.onERC1155Received. Failure of the receiver callback does not invalidate the nonce. The receiver is NOT part of the EIP712 minting authorization.","sig":"Encoded ECDSA signature by `bridge` over the EIP712 minting authorization. Formed as the 65-byte concatenation of r, s, and v in that order. s must be in the lower half of the curve. v must be 27 or 28.","transferData":"Additional argument to be passed to `receiver`'s callback. Ignored if `receiver` is not a contract. The transferData is NOT part of the EIP712 minting authorization."}},"owner()":{"details":"Returns the address of the current owner."},"pendingOwner()":{"details":"Returns the address of the pending owner."},"proxiableUUID()":{"details":"Implementation of the ERC1822 {proxiableUUID} function. This returns the storage slot used by the implementation. It is used to validate the implementation's compatibility when performing an upgrade. IMPORTANT: A proxy pointing at a proxiable contract should not be considered proxiable itself, because this risks bricking a proxy that upgrades to it, by delegating to itself until out of gas. Thus it is critical that this function revert if invoked through a proxy. This is guaranteed by the `notDelegated` modifier."},"renounceOwnership()":{"details":"Leaves the contract without owner. It will not be possible to call `onlyOwner` functions anymore. Can only be called by the current owner. NOTE: Renouncing ownership will leave the contract without an owner, thereby removing any functionality that is only available to the owner."},"transferOwnership(address)":{"details":"Starts the ownership transfer of the contract to a new account. Replaces the pending transfer if there is one. Can only be called by the current owner."},"upgradeTo(address)":{"details":"Upgrade the implementation of the proxy to `newImplementation`. Calls {_authorizeUpgrade}. Emits an {Upgraded} event."},"upgradeToAndCall(address,bytes)":{"details":"Upgrade the implementation of the proxy to `newImplementation`, and subsequently execute the function call encoded in `data`. Calls {_authorizeUpgrade}. Emits an {Upgraded} event."}},"stateVariables":{"__gap":{"details":"Reserved storage gap. LINK: https://docs.openzeppelin.com/contracts/4.x/upgradeable#storage_gaps"},"bridge":{"details":"This is the wallet/EOA address that authorizes minting new EATs. This is a separate authority from the right to upgrade protocol contracts."},"consumedNonces":{"details":"This contract uses non-sequential nonces so that multiple mint authorizations can be issued concurrently. The downside to this approach is that it is slightly more involved to invalidate a nonce that has not yet been consumed."},"name":{"details":"This is the EIP712 domain name. It is exposed here for ease of introspection."},"version":{"details":"This is the EIP712 domain version. It is exposed here for ease of introspection."}},"version":1},"evm":{"bytecode":{"linkReferences":{},"object":"60e0604052306080523480156200001557600080fd5b5060405162002cd638038062002cd683398101604081905262000038916200006d565b6001600160a01b0391821660a0521660c052620000a5565b80516001600160a01b03811681146200006857600080fd5b919050565b600080604083850312156200008157600080fd5b6200008c8362000050565b91506200009c6020840162000050565b90509250929050565b60805160a05160c051612b8362000153600039600081816102d5015281816108930152610c680152600081816104da0152818161095601528181610ce90152818161102e01528181611156015281816114ed01526116470152600081816109e801528181610a2801528181610d6b01528181610dab01528181610e2701528181610f8201528181610fc2015281816112dd0152818161131d0152818161144901526114890152612b836000f3fe6080604052600436106101665760003560e01c806380a5a371116100d1578063e090fa3c1161008a578063e922ba7911610064578063e922ba7914610454578063f2fde38b14610474578063f76fc35e14610494578063fc0c546a146104c857600080fd5b8063e090fa3c146103f5578063e30c397814610415578063e78cea921461043357600080fd5b806380a5a3711461030f5780638da5cb5b1461032f5780638dd148021461034d5780638f15b4141461036d578063b3c9ed591461038d578063ce89a040146103c157600080fd5b80634f1ef286116101235780634f1ef2861461025c57806352d1902d1461026f57806354fd4d5014610284578063715018a61461029957806379ba5097146102ae5780637dc0d1d0146102c357600080fd5b806306fdde031461016b57806310dbebce14610196578063163c50ac146101d75780633644e515146101f95780633659cfe61461021c57806336b092271461023c575b600080fd5b34801561017757600080fd5b506101806104fc565b60405161018d9190612125565b60405180910390f35b3480156101a257600080fd5b506101c76101b1366004612138565b6101326020526000908152604090205460ff1681565b604051901515815260200161018d565b3480156101e357600080fd5b506101f76101f2366004612333565b61058b565b005b34801561020557600080fd5b5061020e6109cf565b60405190815260200161018d565b34801561022857600080fd5b506101f7610237366004612429565b6109de565b34801561024857600080fd5b506101f7610257366004612444565b610aa6565b6101f761026a3660046124c3565b610d61565b34801561027b57600080fd5b5061020e610e1a565b34801561029057600080fd5b50610180610edf565b3480156102a557600080fd5b506101f7610eed565b3480156102ba57600080fd5b506101f7610f01565b3480156102cf57600080fd5b506102f77f000000000000000000000000000000000000000000000000000000000000000081565b6040516001600160a01b03909116815260200161018d565b34801561031b57600080fd5b506101f761032a366004612511565b610f78565b34801561033b57600080fd5b506033546001600160a01b03166102f7565b34801561035957600080fd5b506101f7610368366004612429565b6111c0565b34801561037957600080fd5b506101f7610388366004612561565b611213565b34801561039957600080fd5b5061020e7f47b77ff24f11d889436314cd63fdefeb0b0f9531da691f5627f546c47e5f002c81565b3480156103cd57600080fd5b5061020e7fb0426304b718d58e27f05888d480cc1c9c956afaab3ba8d45afcce29f30d644881565b34801561040157600080fd5b506101f76104103660046125e6565b61143f565b34801561042157600080fd5b506065546001600160a01b03166102f7565b34801561043f57600080fd5b5061012f546102f7906001600160a01b031681565b34801561046057600080fd5b506101f761046f366004612664565b611688565b34801561048057600080fd5b506101f761048f366004612429565b6117b7565b3480156104a057600080fd5b5061020e7f7ed266a150d7268b399e18c9036ad7ff35a4bf8f1ddf162234a3684916e16dc881565b3480156104d457600080fd5b506102f77f000000000000000000000000000000000000000000000000000000000000000081565b610130805461050a90612695565b80601f016020809104026020016040519081016040528092919081815260200182805461053690612695565b80156105835780601f1061055857610100808354040283529160200191610583565b820191906000526020600020905b81548152906001019060200180831161056657829003601f168201915b505050505081565b83518751146105fc5760405162461bcd60e51b815260206004820152603260248201527f4a61736d696e654d696e7465723a2069647320616e64206f7261636c654461746044820152710c2e640d8cadccee8d040dad2e6dac2e8c6d60731b60648201526084015b60405180910390fd5b824211156106455760405162461bcd60e51b815260206004820152601660248201527512985cdb5a5b99535a5b9d195c8e88195e1c1a5c995960521b60448201526064016105f3565b6000845167ffffffffffffffff8111156106615761066161216d565b60405190808252806020026020018201604052801561068a578160200160208202803683370190505b50905060005b85518110156106ec578581815181106106ab576106ab6126cf565b60200260200101518051906020012060001c8282815181106106cf576106cf6126cf565b6020908102919091010152806106e4816126e5565b915050610690565b508751600590811b6020808b01919091208951831b8a830120845190931b84830120604080517f47b77ff24f11d889436314cd63fdefeb0b0f9531da691f5627f546c47e5f002c8186015233818301526060810193909352608083019490945260a082015260c0810187905260e080820187905283518083039091018152610100909101909252815191012061012f546001600160a01b031661079761079183611828565b8561187c565b6001600160a01b0316146107bd5760405162461bcd60e51b81526004016105f39061270c565b6000848152610132602052604090205460ff161561081d5760405162461bcd60e51b815260206004820152601b60248201527f4a61736d696e654d696e7465723a206e6f6e6365207265706c6179000000000060448201526064016105f3565b60008481526101326020526040808220805460ff191660011790555185917f70cd0c14252edef0440009634a4e86036a1747c9fbe7e4c2c05b8b62f9c410e291a260005b865181101561093e57600087828151811061087e5761087e6126cf565b60200260200101519050805160001461092b577f00000000000000000000000000000000000000000000000000000000000000006001600160a01b03166307e3810c8c84815181106108d2576108d26126cf565b6020026020010151836040518363ffffffff1660e01b81526004016108f8929190612755565b600060405180830381600087803b15801561091257600080fd5b505af1158015610926573d6000803e3d6000fd5b505050505b5080610936816126e5565b915050610861565b50604051630fbfeffd60e11b81526001600160a01b037f00000000000000000000000000000000000000000000000000000000000000001690631f7fdffa90610991908d908d908d908d906004016127b1565b600060405180830381600087803b1580156109ab57600080fd5b505af11580156109bf573d6000803e3d6000fd5b5050505050505050505050505050565b60006109d96118a0565b905090565b6001600160a01b037f0000000000000000000000000000000000000000000000000000000000000000163003610a265760405162461bcd60e51b81526004016105f390612804565b7f00000000000000000000000000000000000000000000000000000000000000006001600160a01b0316610a586118d7565b6001600160a01b031614610a7e5760405162461bcd60e51b81526004016105f390612850565b610a8781611905565b60408051600080825260208201909252610aa39183919061190d565b50565b82421115610aef5760405162461bcd60e51b815260206004820152601660248201527512985cdb5a5b99535a5b9d195c8e88195e1c1a5c995960521b60448201526064016105f3565b8351602080860191909120604080517f7ed266a150d7268b399e18c9036ad7ff35a4bf8f1ddf162234a3684916e16dc8818501523381830152606081018b9052608081018a905260a081019290925260c0820186905260e0808301869052815180840390910181526101009092019052805191012061012f546001600160a01b0316610b83610b7d83611828565b8461187c565b6001600160a01b031614610ba95760405162461bcd60e51b81526004016105f39061270c565b6000838152610132602052604090205460ff1615610c095760405162461bcd60e51b815260206004820152601b60248201527f4a61736d696e654d696e7465723a206e6f6e6365207265706c6179000000000060448201526064016105f3565b60008381526101326020526040808220805460ff191660011790555184917f70cd0c14252edef0440009634a4e86036a1747c9fbe7e4c2c05b8b62f9c410e291a2845115610cd2576040516301f8e04360e21b81526001600160a01b037f000000000000000000000000000000000000000000000000000000000000000016906307e3810c90610c9f908b908990600401612755565b600060405180830381600087803b158015610cb957600080fd5b505af1158015610ccd573d6000803e3d6000fd5b505050505b60405163731133e960e01b81526001600160a01b037f0000000000000000000000000000000000000000000000000000000000000000169063731133e990610d24908c908c908c908c9060040161289c565b600060405180830381600087803b158015610d3e57600080fd5b505af1158015610d52573d6000803e3d6000fd5b50505050505050505050505050565b6001600160a01b037f0000000000000000000000000000000000000000000000000000000000000000163003610da95760405162461bcd60e51b81526004016105f390612804565b7f00000000000000000000000000000000000000000000000000000000000000006001600160a01b0316610ddb6118d7565b6001600160a01b031614610e015760405162461bcd60e51b81526004016105f390612850565b610e0a82611905565b610e168282600161190d565b5050565b6000306001600160a01b037f00000000000000000000000000000000000000000000000000000000000000001614610eba5760405162461bcd60e51b815260206004820152603860248201527f555550535570677261646561626c653a206d757374206e6f742062652063616c60448201527f6c6564207468726f7567682064656c656761746563616c6c000000000000000060648201526084016105f3565b507f360894a13ba1a3210667c828492db98dca3e2076cc3735a920a3ca505d382bbc90565b610131805461050a90612695565b610ef5611a8f565b610eff6000611ae9565b565b60655433906001600160a01b03168114610f6f5760405162461bcd60e51b815260206004820152602960248201527f4f776e61626c6532537465703a2063616c6c6572206973206e6f7420746865206044820152683732bb9037bbb732b960b91b60648201526084016105f3565b610aa381611ae9565b6001600160a01b037f0000000000000000000000000000000000000000000000000000000000000000163003610fc05760405162461bcd60e51b81526004016105f390612804565b7f00000000000000000000000000000000000000000000000000000000000000006001600160a01b0316610ff26118d7565b6001600160a01b0316146110185760405162461bcd60e51b81526004016105f390612850565b6040516303a6b01160e61b8152600481018490527f00000000000000000000000000000000000000000000000000000000000000006001600160a01b03169063e9ac044090602401602060405180830381865afa15801561107d573d6000803e3d6000fd5b505050506040513d601f19601f820116820180604052508101906110a191906128d4565b156110ee5760405162461bcd60e51b815260206004820152601c60248201527f4a61736d696e654d696e7465723a2066726f7a656e207365726965730000000060448201526064016105f3565b336001600160a01b03167f422475c8264e559fa982d4f66450a9bd1d5bee42cf8a98f6e032d1715b85955284848460405161112b939291906128f6565b60405180910390a2604051637a94c56560e11b815233600482015260248101849052604481018390527f00000000000000000000000000000000000000000000000000000000000000006001600160a01b03169063f5298aca906064015b600060405180830381600087803b1580156111a357600080fd5b505af11580156111b7573d6000803e3d6000fd5b50505050505050565b6111c8611a8f565b61012f80546001600160a01b0319166001600160a01b0383169081179091556040517f9775531310b2880b61484ed85cbb0b491c8fde3a07f289c63b9255178279449790600090a250565b600054610100900460ff16158080156112335750600054600160ff909116105b8061124d5750303b15801561124d575060005460ff166001145b6112b05760405162461bcd60e51b815260206004820152602e60248201527f496e697469616c697a61626c653a20636f6e747261637420697320616c72656160448201526d191e481a5b9a5d1a585b1a5e995960921b60648201526084016105f3565b6000805460ff1916600117905580156112d3576000805461ff0019166101001790555b6001600160a01b037f000000000000000000000000000000000000000000000000000000000000000016300361131b5760405162461bcd60e51b81526004016105f390612804565b7f00000000000000000000000000000000000000000000000000000000000000006001600160a01b031661134d6118d7565b6001600160a01b0316146113735760405162461bcd60e51b81526004016105f390612850565b61137c82611ae9565b611384611b02565b61138e8585611b29565b61013061139b8682612963565b506101316113a98582612963565b5061012f80546001600160a01b0319166001600160a01b0385169081179091556040517f9775531310b2880b61484ed85cbb0b491c8fde3a07f289c63b9255178279449790600090a28015611438576000805461ff0019169055604051600181527f7f26b83ff96e1f2b6a682f133852f6798a09c465da95921460cefb38474024989060200160405180910390a15b5050505050565b6001600160a01b037f00000000000000000000000000000000000000000000000000000000000000001630036114875760405162461bcd60e51b81526004016105f390612804565b7f00000000000000000000000000000000000000000000000000000000000000006001600160a01b03166114b96118d7565b6001600160a01b0316146114df5760405162461bcd60e51b81526004016105f390612850565b60005b83518110156115f2577f00000000000000000000000000000000000000000000000000000000000000006001600160a01b031663e9ac044085838151811061152c5761152c6126cf565b60200260200101516040518263ffffffff1660e01b815260040161155291815260200190565b602060405180830381865afa15801561156f573d6000803e3d6000fd5b505050506040513d601f19601f8201168201806040525081019061159391906128d4565b156115e05760405162461bcd60e51b815260206004820152601c60248201527f4a61736d696e654d696e7465723a2066726f7a656e207365726965730000000060448201526064016105f3565b806115ea816126e5565b9150506114e2565b50336001600160a01b03167ff989b967ab06cb95ffa87edfc41b030132a3a687e55e92faf63512234d18e28f84848460405161163093929190612a23565b60405180910390a2604051631ac8311560e21b81527f00000000000000000000000000000000000000000000000000000000000000006001600160a01b031690636b20c4549061118990339087908790600401612a5c565b604080517fb0426304b718d58e27f05888d480cc1c9c956afaab3ba8d45afcce29f30d64486020808301919091528183018590528251808303840181526060909201909252805191012061012f546001600160a01b03166116eb610b7d83611828565b6001600160a01b0316146117115760405162461bcd60e51b81526004016105f39061270c565b6000838152610132602052604090205460ff16156117715760405162461bcd60e51b815260206004820152601b60248201527f4a61736d696e654d696e7465723a206e6f6e6365207265706c6179000000000060448201526064016105f3565b60008381526101326020526040808220805460ff191660011790555184917f70cd0c14252edef0440009634a4e86036a1747c9fbe7e4c2c05b8b62f9c410e291a2505050565b6117bf611a8f565b606580546001600160a01b0383166001600160a01b031990911681179091556117f06033546001600160a01b031690565b6001600160a01b03167f38d16b8cac22d99fc7c124b9cd0de2d3fa1faef420bfe791d8c362d765e2270060405160405180910390a350565b60006118766118356118a0565b8360405161190160f01b6020820152602281018390526042810182905260009060620160405160208183030381529060405280519060200120905092915050565b92915050565b600080600061188b8585611b5a565b9150915061189881611b9f565b509392505050565b60006109d97f8b73c3c69bb8fe3d512ecc4cf759cc79239f7b179b0ffacaa9a75d522b39400f6118cf60fb5490565b60fc54611ce9565b7f360894a13ba1a3210667c828492db98dca3e2076cc3735a920a3ca505d382bbc546001600160a01b031690565b610aa3611a8f565b7f4910fdfa16fed3260ed0e7147f7cc6da11a60208b5b9406d12a635614ffd91435460ff16156119455761194083611d33565b505050565b826001600160a01b03166352d1902d6040518163ffffffff1660e01b8152600401602060405180830381865afa92505050801561199f575060408051601f3d908101601f1916820190925261199c91810190612a90565b60015b611a025760405162461bcd60e51b815260206004820152602e60248201527f45524331393637557067726164653a206e657720696d706c656d656e7461746960448201526d6f6e206973206e6f74205555505360901b60648201526084016105f3565b7f360894a13ba1a3210667c828492db98dca3e2076cc3735a920a3ca505d382bbc8114611a835760405162461bcd60e51b815260206004820152602960248201527f45524331393637557067726164653a20756e737570706f727465642070726f786044820152681a58589b195555525160ba1b60648201526084016105f3565b50611940838383611de1565b6033546001600160a01b03163314610eff5760405162461bcd60e51b815260206004820181905260248201527f4f776e61626c653a2063616c6c6572206973206e6f7420746865206f776e657260448201526064016105f3565b606580546001600160a01b0319169055610aa381611e0c565b600054610100900460ff16610eff5760405162461bcd60e51b81526004016105f390612aa9565b600054610100900460ff16611b505760405162461bcd60e51b81526004016105f390612aa9565b610e168282611e5e565b6000808251604103611b905760208301516040840151606085015160001a611b8487828585611e9f565b94509450505050611b98565b506000905060025b9250929050565b6000816004811115611bb357611bb3612af4565b03611bbb5750565b6001816004811115611bcf57611bcf612af4565b03611c1c5760405162461bcd60e51b815260206004820152601860248201527f45434453413a20696e76616c6964207369676e6174757265000000000000000060448201526064016105f3565b6002816004811115611c3057611c30612af4565b03611c7d5760405162461bcd60e51b815260206004820152601f60248201527f45434453413a20696e76616c6964207369676e6174757265206c656e6774680060448201526064016105f3565b6003816004811115611c9157611c91612af4565b03610aa35760405162461bcd60e51b815260206004820152602260248201527f45434453413a20696e76616c6964207369676e6174757265202773272076616c604482015261756560f01b60648201526084016105f3565b6040805160208101859052908101839052606081018290524660808201523060a082015260009060c0016040516020818303038152906040528051906020012090505b9392505050565b6001600160a01b0381163b611da05760405162461bcd60e51b815260206004820152602d60248201527f455243313936373a206e657720696d706c656d656e746174696f6e206973206e60448201526c1bdd08184818dbdb9d1c9858dd609a1b60648201526084016105f3565b7f360894a13ba1a3210667c828492db98dca3e2076cc3735a920a3ca505d382bbc80546001600160a01b0319166001600160a01b0392909216919091179055565b611dea83611f63565b600082511180611df75750805b1561194057611e068383611fa3565b50505050565b603380546001600160a01b038381166001600160a01b0319831681179093556040519116919082907f8be0079c531659141344cd1fd0a4f28419497f9722a3daafe3b4186f6b6457e090600090a35050565b600054610100900460ff16611e855760405162461bcd60e51b81526004016105f390612aa9565b81516020928301208151919092012060fb9190915560fc55565b6000807f7fffffffffffffffffffffffffffffff5d576e7357a4501ddfe92f46681b20a0831115611ed65750600090506003611f5a565b6040805160008082526020820180845289905260ff881692820192909252606081018690526080810185905260019060a0016020604051602081039080840390855afa158015611f2a573d6000803e3d6000fd5b5050604051601f1901519150506001600160a01b038116611f5357600060019250925050611f5a565b9150600090505b94509492505050565b611f6c81611d33565b6040516001600160a01b038216907fbc7cd75a20ee27fd9adebab32041f755214dbc6bffa90cc0225b39da2e5c2d3b90600090a250565b60606001600160a01b0383163b61200b5760405162461bcd60e51b815260206004820152602660248201527f416464726573733a2064656c65676174652063616c6c20746f206e6f6e2d636f6044820152651b9d1c9858dd60d21b60648201526084016105f3565b600080846001600160a01b0316846040516120269190612b0a565b600060405180830381855af49150503d8060008114612061576040519150601f19603f3d011682016040523d82523d6000602084013e612066565b606091505b509150915061208e8282604051806060016040528060278152602001612b2760279139612097565b95945050505050565b606083156120a6575081611d2c565b611d2c83838151156120bb5781518083602001fd5b8060405162461bcd60e51b81526004016105f39190612125565b60005b838110156120f05781810151838201526020016120d8565b50506000910152565b600081518084526121118160208601602086016120d5565b601f01601f19169290920160200192915050565b602081526000611d2c60208301846120f9565b60006020828403121561214a57600080fd5b5035919050565b80356001600160a01b038116811461216857600080fd5b919050565b634e487b7160e01b600052604160045260246000fd5b604051601f8201601f1916810167ffffffffffffffff811182821017156121ac576121ac61216d565b604052919050565b600067ffffffffffffffff8211156121ce576121ce61216d565b5060051b60200190565b600082601f8301126121e957600080fd5b813560206121fe6121f9836121b4565b612183565b82815260059290921b8401810191818101908684111561221d57600080fd5b8286015b848110156122385780358352918301918301612221565b509695505050505050565b600082601f83011261225457600080fd5b813567ffffffffffffffff81111561226e5761226e61216d565b612281601f8201601f1916602001612183565b81815284602083860101111561229657600080fd5b816020850160208301376000918101602001919091529392505050565b600082601f8301126122c457600080fd5b813560206122d46121f9836121b4565b82815260059290921b840181019181810190868411156122f357600080fd5b8286015b8481101561223857803567ffffffffffffffff8111156123175760008081fd5b6123258986838b0101612243565b8452509183019183016122f7565b600080600080600080600080610100898b03121561235057600080fd5b61235989612151565b9750602089013567ffffffffffffffff8082111561237657600080fd5b6123828c838d016121d8565b985060408b013591508082111561239857600080fd5b6123a48c838d016121d8565b975060608b01359150808211156123ba57600080fd5b6123c68c838d01612243565b965060808b01359150808211156123dc57600080fd5b6123e88c838d016122b3565b955060a08b0135945060c08b0135935060e08b013591508082111561240c57600080fd5b506124198b828c01612243565b9150509295985092959890939650565b60006020828403121561243b57600080fd5b611d2c82612151565b600080600080600080600080610100898b03121561246157600080fd5b61246a89612151565b97506020890135965060408901359550606089013567ffffffffffffffff8082111561249557600080fd5b6124a18c838d01612243565b965060808b01359150808211156124b757600080fd5b6123e88c838d01612243565b600080604083850312156124d657600080fd5b6124df83612151565b9150602083013567ffffffffffffffff8111156124fb57600080fd5b61250785828601612243565b9150509250929050565b60008060006060848603121561252657600080fd5b8335925060208401359150604084013567ffffffffffffffff81111561254b57600080fd5b61255786828701612243565b9150509250925092565b6000806000806080858703121561257757600080fd5b843567ffffffffffffffff8082111561258f57600080fd5b61259b88838901612243565b955060208701359150808211156125b157600080fd5b506125be87828801612243565b9350506125cd60408601612151565b91506125db60608601612151565b905092959194509250565b6000806000606084860312156125fb57600080fd5b833567ffffffffffffffff8082111561261357600080fd5b61261f878388016121d8565b9450602086013591508082111561263557600080fd5b612641878388016121d8565b9350604086013591508082111561265757600080fd5b5061255786828701612243565b6000806040838503121561267757600080fd5b82359150602083013567ffffffffffffffff8111156124fb57600080fd5b600181811c908216806126a957607f821691505b6020821081036126c957634e487b7160e01b600052602260045260246000fd5b50919050565b634e487b7160e01b600052603260045260246000fd5b60006001820161270557634e487b7160e01b600052601160045260246000fd5b5060010190565b60208082526029908201527f4a61736d696e654d696e7465723a20626164207369676e61747572652f77726f60408201526837339039b4b3b732b960b91b606082015260800190565b82815260406020820152600061276e60408301846120f9565b949350505050565b600081518084526020808501945080840160005b838110156127a65781518752958201959082019060010161278a565b509495945050505050565b6001600160a01b03851681526080602082015260006127d36080830186612776565b82810360408401526127e58186612776565b905082810360608401526127f981856120f9565b979650505050505050565b6020808252602c908201527f46756e6374696f6e206d7573742062652063616c6c6564207468726f7567682060408201526b19195b1959d85d1958d85b1b60a21b606082015260800190565b6020808252602c908201527f46756e6374696f6e206d7573742062652063616c6c6564207468726f7567682060408201526b6163746976652070726f787960a01b606082015260800190565b6001600160a01b03851681528360208201528260408201526080606082015260006128ca60808301846120f9565b9695505050505050565b6000602082840312156128e657600080fd5b81518015158114611d2c57600080fd5b83815282602082015260606040820152600061208e60608301846120f9565b601f82111561194057600081815260208120601f850160051c8101602086101561293c5750805b601f850160051c820191505b8181101561295b57828155600101612948565b505050505050565b815167ffffffffffffffff81111561297d5761297d61216d565b6129918161298b8454612695565b84612915565b602080601f8311600181146129c657600084156129ae5750858301515b600019600386901b1c1916600185901b17855561295b565b600085815260208120601f198616915b828110156129f5578886015182559484019460019091019084016129d6565b5085821015612a135787850151600019600388901b60f8161c191681555b5050505050600190811b01905550565b606081526000612a366060830186612776565b8281036020840152612a488186612776565b905082810360408401526128ca81856120f9565b6001600160a01b0384168152606060208201526000612a7e6060830185612776565b82810360408401526128ca8185612776565b600060208284031215612aa257600080fd5b5051919050565b6020808252602b908201527f496e697469616c697a61626c653a20636f6e7472616374206973206e6f74206960408201526a6e697469616c697a696e6760a81b606082015260800190565b634e487b7160e01b600052602160045260246000fd5b60008251612b1c8184602087016120d5565b919091019291505056fe416464726573733a206c6f772d6c6576656c2064656c65676174652063616c6c206661696c6564a26469706673582212205b160dce73b8e2ec7b229bdee149d3865784095768bca0aa43ed6e8cc42d222464736f6c63430008110033","opcodes":"PUSH1 0xE0 PUSH1 0x40 MSTORE ADDRESS PUSH1 0x80 MSTORE CALLVALUE DUP1 ISZERO PUSH3 0x15 JUMPI PUSH1 0x0 DUP1 REVERT JUMPDEST POP PUSH1 0x40 MLOAD PUSH3 0x2CD6 CODESIZE SUB DUP1 PUSH3 0x2CD6 DUP4 CODECOPY DUP2 ADD PUSH1 0x40 DUP2 SWAP1 MSTORE PUSH3 0x38 SWAP2 PUSH3 0x6D JUMP JUMPDEST PUSH1 0x1 PUSH1 0x1 PUSH1 0xA0 SHL SUB SWAP2 DUP3 AND PUSH1 0xA0 MSTORE AND PUSH1 0xC0 MSTORE PUSH3 0xA5 JUMP JUMPDEST DUP1 MLOAD PUSH1 0x1 PUSH1 0x1 PUSH1 0xA0 SHL SUB DUP2 AND DUP2 EQ PUSH3 0x68 JUMPI PUSH1 0x0 DUP1 REVERT JUMPDEST SWAP2 SWAP1 POP JUMP JUMPDEST PUSH1 0x0 DUP1 PUSH1 0x40 DUP4 DUP6 SUB SLT ISZERO PUSH3 0x81 JUMPI PUSH1 0x0 DUP1 REVERT JUMPDEST PUSH3 0x8C DUP4 PUSH3 0x50 JUMP JUMPDEST SWAP2 POP PUSH3 0x9C PUSH1 0x20 DUP5 ADD PUSH3 0x50 JUMP JUMPDEST SWAP1 POP SWAP3 POP SWAP3 SWAP1 POP JUMP JUMPDEST PUSH1 0x80 MLOAD PUSH1 0xA0 MLOAD PUSH1 0xC0 MLOAD PUSH2 0x2B83 PUSH3 0x153 PUSH1 0x0 CODECOPY PUSH1 0x0 DUP2 DUP2 PUSH2 0x2D5 ADD MSTORE DUP2 DUP2 PUSH2 0x893 ADD MSTORE PUSH2 0xC68 ADD MSTORE PUSH1 0x0 DUP2 DUP2 PUSH2 0x4DA ADD MSTORE DUP2 DUP2 PUSH2 0x956 ADD MSTORE DUP2 DUP2 PUSH2 0xCE9 ADD MSTORE DUP2 DUP2 PUSH2 0x102E ADD MSTORE DUP2 DUP2 PUSH2 0x1156 ADD MSTORE DUP2 DUP2 PUSH2 0x14ED ADD MSTORE PUSH2 0x1647 ADD MSTORE PUSH1 0x0 DUP2 DUP2 PUSH2 0x9E8 ADD MSTORE DUP2 DUP2 PUSH2 0xA28 ADD MSTORE DUP2 DUP2 PUSH2 0xD6B ADD MSTORE DUP2 DUP2 PUSH2 0xDAB ADD MSTORE DUP2 DUP2 PUSH2 0xE27 ADD MSTORE DUP2 DUP2 PUSH2 0xF82 ADD MSTORE DUP2 DUP2 PUSH2 0xFC2 ADD MSTORE DUP2 DUP2 PUSH2 0x12DD ADD MSTORE DUP2 DUP2 PUSH2 0x131D ADD MSTORE DUP2 DUP2 PUSH2 0x1449 ADD MSTORE PUSH2 0x1489 ADD MSTORE PUSH2 0x2B83 PUSH1 0x0 RETURN INVALID PUSH1 0x80 PUSH1 0x40 MSTORE PUSH1 0x4 CALLDATASIZE LT PUSH2 0x166 JUMPI PUSH1 0x0 CALLDATALOAD PUSH1 0xE0 SHR DUP1 PUSH4 0x80A5A371 GT PUSH2 0xD1 JUMPI DUP1 PUSH4 0xE090FA3C GT PUSH2 0x8A JUMPI DUP1 PUSH4 0xE922BA79 GT PUSH2 0x64 JUMPI DUP1 PUSH4 0xE922BA79 EQ PUSH2 0x454 JUMPI DUP1 PUSH4 0xF2FDE38B EQ PUSH2 0x474 JUMPI DUP1 PUSH4 0xF76FC35E EQ PUSH2 0x494 JUMPI DUP1 PUSH4 0xFC0C546A EQ PUSH2 0x4C8 JUMPI PUSH1 0x0 DUP1 REVERT JUMPDEST DUP1 PUSH4 0xE090FA3C EQ PUSH2 0x3F5 JUMPI DUP1 PUSH4 0xE30C3978 EQ PUSH2 0x415 JUMPI DUP1 PUSH4 0xE78CEA92 EQ PUSH2 0x433 JUMPI PUSH1 0x0 DUP1 REVERT JUMPDEST DUP1 PUSH4 0x80A5A371 EQ PUSH2 0x30F JUMPI DUP1 PUSH4 0x8DA5CB5B EQ PUSH2 0x32F JUMPI DUP1 PUSH4 0x8DD14802 EQ PUSH2 0x34D JUMPI DUP1 PUSH4 0x8F15B414 EQ PUSH2 0x36D JUMPI DUP1 PUSH4 0xB3C9ED59 EQ PUSH2 0x38D JUMPI DUP1 PUSH4 0xCE89A040 EQ PUSH2 0x3C1 JUMPI PUSH1 0x0 DUP1 REVERT JUMPDEST DUP1 PUSH4 0x4F1EF286 GT PUSH2 0x123 JUMPI DUP1 PUSH4 0x4F1EF286 EQ PUSH2 0x25C JUMPI DUP1 PUSH4 0x52D1902D EQ PUSH2 0x26F JUMPI DUP1 PUSH4 0x54FD4D50 EQ PUSH2 0x284 JUMPI DUP1 PUSH4 0x715018A6 EQ PUSH2 0x299 JUMPI DUP1 PUSH4 0x79BA5097 EQ PUSH2 0x2AE JUMPI DUP1 PUSH4 0x7DC0D1D0 EQ PUSH2 0x2C3 JUMPI PUSH1 0x0 DUP1 REVERT JUMPDEST DUP1 PUSH4 0x6FDDE03 EQ PUSH2 0x16B JUMPI DUP1 PUSH4 0x10DBEBCE EQ PUSH2 0x196 JUMPI DUP1 PUSH4 0x163C50AC EQ PUSH2 0x1D7 JUMPI DUP1 PUSH4 0x3644E515 EQ PUSH2 0x1F9 JUMPI DUP1 PUSH4 0x3659CFE6 EQ PUSH2 0x21C JUMPI DUP1 PUSH4 0x36B09227 EQ PUSH2 0x23C JUMPI JUMPDEST PUSH1 0x0 DUP1 REVERT JUMPDEST CALLVALUE DUP1 ISZERO PUSH2 0x177 JUMPI PUSH1 0x0 DUP1 REVERT JUMPDEST POP PUSH2 0x180 PUSH2 0x4FC JUMP JUMPDEST PUSH1 0x40 MLOAD PUSH2 0x18D SWAP2 SWAP1 PUSH2 0x2125 JUMP JUMPDEST PUSH1 0x40 MLOAD DUP1 SWAP2 SUB SWAP1 RETURN JUMPDEST CALLVALUE DUP1 ISZERO PUSH2 0x1A2 JUMPI PUSH1 0x0 DUP1 REVERT JUMPDEST POP PUSH2 0x1C7 PUSH2 0x1B1 CALLDATASIZE PUSH1 0x4 PUSH2 0x2138 JUMP JUMPDEST PUSH2 0x132 PUSH1 0x20 MSTORE PUSH1 0x0 SWAP1 DUP2 MSTORE PUSH1 0x40 SWAP1 KECCAK256 SLOAD PUSH1 0xFF AND DUP2 JUMP JUMPDEST PUSH1 0x40 MLOAD SWAP1 ISZERO ISZERO DUP2 MSTORE PUSH1 0x20 ADD PUSH2 0x18D JUMP JUMPDEST CALLVALUE DUP1 ISZERO PUSH2 0x1E3 JUMPI PUSH1 0x0 DUP1 REVERT JUMPDEST POP PUSH2 0x1F7 PUSH2 0x1F2 CALLDATASIZE PUSH1 0x4 PUSH2 0x2333 JUMP JUMPDEST PUSH2 0x58B JUMP JUMPDEST STOP JUMPDEST CALLVALUE DUP1 ISZERO PUSH2 0x205 JUMPI PUSH1 0x0 DUP1 REVERT JUMPDEST POP PUSH2 0x20E PUSH2 0x9CF JUMP JUMPDEST PUSH1 0x40 MLOAD SWAP1 DUP2 MSTORE PUSH1 0x20 ADD PUSH2 0x18D JUMP JUMPDEST CALLVALUE DUP1 ISZERO PUSH2 0x228 JUMPI PUSH1 0x0 DUP1 REVERT JUMPDEST POP PUSH2 0x1F7 PUSH2 0x237 CALLDATASIZE PUSH1 0x4 PUSH2 0x2429 JUMP JUMPDEST PUSH2 0x9DE JUMP JUMPDEST CALLVALUE DUP1 ISZERO PUSH2 0x248 JUMPI PUSH1 0x0 DUP1 REVERT JUMPDEST POP PUSH2 0x1F7 PUSH2 0x257 CALLDATASIZE PUSH1 0x4 PUSH2 0x2444 JUMP JUMPDEST PUSH2 0xAA6 JUMP JUMPDEST PUSH2 0x1F7 PUSH2 0x26A CALLDATASIZE PUSH1 0x4 PUSH2 0x24C3 JUMP JUMPDEST PUSH2 0xD61 JUMP JUMPDEST CALLVALUE DUP1 ISZERO PUSH2 0x27B JUMPI PUSH1 0x0 DUP1 REVERT JUMPDEST POP PUSH2 0x20E PUSH2 0xE1A JUMP JUMPDEST CALLVALUE DUP1 ISZERO PUSH2 0x290 JUMPI PUSH1 0x0 DUP1 REVERT JUMPDEST POP PUSH2 0x180 PUSH2 0xEDF JUMP JUMPDEST CALLVALUE DUP1 ISZERO PUSH2 0x2A5 JUMPI PUSH1 0x0 DUP1 REVERT JUMPDEST POP PUSH2 0x1F7 PUSH2 0xEED JUMP JUMPDEST CALLVALUE DUP1 ISZERO PUSH2 0x2BA JUMPI PUSH1 0x0 DUP1 REVERT JUMPDEST POP PUSH2 0x1F7 PUSH2 0xF01 JUMP JUMPDEST CALLVALUE DUP1 ISZERO PUSH2 0x2CF JUMPI PUSH1 0x0 DUP1 REVERT JUMPDEST POP PUSH2 0x2F7 PUSH32 0x0 DUP2 JUMP JUMPDEST PUSH1 0x40 MLOAD PUSH1 0x1 PUSH1 0x1 PUSH1 0xA0 SHL SUB SWAP1 SWAP2 AND DUP2 MSTORE PUSH1 0x20 ADD PUSH2 0x18D JUMP JUMPDEST CALLVALUE DUP1 ISZERO PUSH2 0x31B JUMPI PUSH1 0x0 DUP1 REVERT JUMPDEST POP PUSH2 0x1F7 PUSH2 0x32A CALLDATASIZE PUSH1 0x4 PUSH2 0x2511 JUMP JUMPDEST PUSH2 0xF78 JUMP JUMPDEST CALLVALUE DUP1 ISZERO PUSH2 0x33B JUMPI PUSH1 0x0 DUP1 REVERT JUMPDEST POP PUSH1 0x33 SLOAD PUSH1 0x1 PUSH1 0x1 PUSH1 0xA0 SHL SUB AND PUSH2 0x2F7 JUMP JUMPDEST CALLVALUE DUP1 ISZERO PUSH2 0x359 JUMPI PUSH1 0x0 DUP1 REVERT JUMPDEST POP PUSH2 0x1F7 PUSH2 0x368 CALLDATASIZE PUSH1 0x4 PUSH2 0x2429 JUMP JUMPDEST PUSH2 0x11C0 JUMP JUMPDEST CALLVALUE DUP1 ISZERO PUSH2 0x379 JUMPI PUSH1 0x0 DUP1 REVERT JUMPDEST POP PUSH2 0x1F7 PUSH2 0x388 CALLDATASIZE PUSH1 0x4 PUSH2 0x2561 JUMP JUMPDEST PUSH2 0x1213 JUMP JUMPDEST CALLVALUE DUP1 ISZERO PUSH2 0x399 JUMPI PUSH1 0x0 DUP1 REVERT JUMPDEST POP PUSH2 0x20E PUSH32 0x47B77FF24F11D889436314CD63FDEFEB0B0F9531DA691F5627F546C47E5F002C DUP2 JUMP JUMPDEST CALLVALUE DUP1 ISZERO PUSH2 0x3CD JUMPI PUSH1 0x0 DUP1 REVERT JUMPDEST POP PUSH2 0x20E PUSH32 0xB0426304B718D58E27F05888D480CC1C9C956AFAAB3BA8D45AFCCE29F30D6448 DUP2 JUMP JUMPDEST CALLVALUE DUP1 ISZERO PUSH2 0x401 JUMPI PUSH1 0x0 DUP1 REVERT JUMPDEST POP PUSH2 0x1F7 PUSH2 0x410 CALLDATASIZE PUSH1 0x4 PUSH2 0x25E6 JUMP JUMPDEST PUSH2 0x143F JUMP JUMPDEST CALLVALUE DUP1 ISZERO PUSH2 0x421 JUMPI PUSH1 0x0 DUP1 REVERT JUMPDEST POP PUSH1 0x65 SLOAD PUSH1 0x1 PUSH1 0x1 PUSH1 0xA0 SHL SUB AND PUSH2 0x2F7 JUMP JUMPDEST CALLVALUE DUP1 ISZERO PUSH2 0x43F JUMPI PUSH1 0x0 DUP1 REVERT JUMPDEST POP PUSH2 0x12F SLOAD PUSH2 0x2F7 SWAP1 PUSH1 0x1 PUSH1 0x1 PUSH1 0xA0 SHL SUB AND DUP2 JUMP JUMPDEST CALLVALUE DUP1 ISZERO PUSH2 0x460 JUMPI PUSH1 0x0 DUP1 REVERT JUMPDEST POP PUSH2 0x1F7 PUSH2 0x46F CALLDATASIZE PUSH1 0x4 PUSH2 0x2664 JUMP JUMPDEST PUSH2 0x1688 JUMP JUMPDEST CALLVALUE DUP1 ISZERO PUSH2 0x480 JUMPI PUSH1 0x0 DUP1 REVERT JUMPDEST POP PUSH2 0x1F7 PUSH2 0x48F CALLDATASIZE PUSH1 0x4 PUSH2 0x2429 JUMP JUMPDEST PUSH2 0x17B7 JUMP JUMPDEST CALLVALUE DUP1 ISZERO PUSH2 0x4A0 JUMPI PUSH1 0x0 DUP1 REVERT JUMPDEST POP PUSH2 0x20E PUSH32 0x7ED266A150D7268B399E18C9036AD7FF35A4BF8F1DDF162234A3684916E16DC8 DUP2 JUMP JUMPDEST CALLVALUE DUP1 ISZERO PUSH2 0x4D4 JUMPI PUSH1 0x0 DUP1 REVERT JUMPDEST POP PUSH2 0x2F7 PUSH32 0x0 DUP2 JUMP JUMPDEST PUSH2 0x130 DUP1 SLOAD PUSH2 0x50A SWAP1 PUSH2 0x2695 JUMP JUMPDEST DUP1 PUSH1 0x1F ADD PUSH1 0x20 DUP1 SWAP2 DIV MUL PUSH1 0x20 ADD PUSH1 0x40 MLOAD SWAP1 DUP2 ADD PUSH1 0x40 MSTORE DUP1 SWAP3 SWAP2 SWAP1 DUP2 DUP2 MSTORE PUSH1 0x20 ADD DUP3 DUP1 SLOAD PUSH2 0x536 SWAP1 PUSH2 0x2695 JUMP JUMPDEST DUP1 ISZERO PUSH2 0x583 JUMPI DUP1 PUSH1 0x1F LT PUSH2 0x558 JUMPI PUSH2 0x100 DUP1 DUP4 SLOAD DIV MUL DUP4 MSTORE SWAP2 PUSH1 0x20 ADD SWAP2 PUSH2 0x583 JUMP JUMPDEST DUP3 ADD SWAP2 SWAP1 PUSH1 0x0 MSTORE PUSH1 0x20 PUSH1 0x0 KECCAK256 SWAP1 JUMPDEST DUP2 SLOAD DUP2 MSTORE SWAP1 PUSH1 0x1 ADD SWAP1 PUSH1 0x20 ADD DUP1 DUP4 GT PUSH2 0x566 JUMPI DUP3 SWAP1 SUB PUSH1 0x1F AND DUP3 ADD SWAP2 JUMPDEST POP POP POP POP POP DUP2 JUMP JUMPDEST DUP4 MLOAD DUP8 MLOAD EQ PUSH2 0x5FC JUMPI PUSH1 0x40 MLOAD PUSH3 0x461BCD PUSH1 0xE5 SHL DUP2 MSTORE PUSH1 0x20 PUSH1 0x4 DUP3 ADD MSTORE PUSH1 0x32 PUSH1 0x24 DUP3 ADD MSTORE PUSH32 0x4A61736D696E654D696E7465723A2069647320616E64206F7261636C65446174 PUSH1 0x44 DUP3 ADD MSTORE PUSH18 0xC2E640D8CADCCEE8D040DAD2E6DAC2E8C6D PUSH1 0x73 SHL PUSH1 0x64 DUP3 ADD MSTORE PUSH1 0x84 ADD JUMPDEST PUSH1 0x40 MLOAD DUP1 SWAP2 SUB SWAP1 REVERT JUMPDEST DUP3 TIMESTAMP GT ISZERO PUSH2 0x645 JUMPI PUSH1 0x40 MLOAD PUSH3 0x461BCD PUSH1 0xE5 SHL DUP2 MSTORE PUSH1 0x20 PUSH1 0x4 DUP3 ADD MSTORE PUSH1 0x16 PUSH1 0x24 DUP3 ADD MSTORE PUSH22 0x12985CDB5A5B99535A5B9D195C8E88195E1C1A5C9959 PUSH1 0x52 SHL PUSH1 0x44 DUP3 ADD MSTORE PUSH1 0x64 ADD PUSH2 0x5F3 JUMP JUMPDEST PUSH1 0x0 DUP5 MLOAD PUSH8 0xFFFFFFFFFFFFFFFF DUP2 GT ISZERO PUSH2 0x661 JUMPI PUSH2 0x661 PUSH2 0x216D JUMP JUMPDEST PUSH1 0x40 MLOAD SWAP1 DUP1 DUP3 MSTORE DUP1 PUSH1 0x20 MUL PUSH1 0x20 ADD DUP3 ADD PUSH1 0x40 MSTORE DUP1 ISZERO PUSH2 0x68A JUMPI DUP2 PUSH1 0x20 ADD PUSH1 0x20 DUP3 MUL DUP1 CALLDATASIZE DUP4 CALLDATACOPY ADD SWAP1 POP JUMPDEST POP SWAP1 POP PUSH1 0x0 JUMPDEST DUP6 MLOAD DUP2 LT ISZERO PUSH2 0x6EC JUMPI DUP6 DUP2 DUP2 MLOAD DUP2 LT PUSH2 0x6AB JUMPI PUSH2 0x6AB PUSH2 0x26CF JUMP JUMPDEST PUSH1 0x20 MUL PUSH1 0x20 ADD ADD MLOAD DUP1 MLOAD SWAP1 PUSH1 0x20 ADD KECCAK256 PUSH1 0x0 SHR DUP3 DUP3 DUP2 MLOAD DUP2 LT PUSH2 0x6CF JUMPI PUSH2 0x6CF PUSH2 0x26CF JUMP JUMPDEST PUSH1 0x20 SWAP1 DUP2 MUL SWAP2 SWAP1 SWAP2 ADD ADD MSTORE DUP1 PUSH2 0x6E4 DUP2 PUSH2 0x26E5 JUMP JUMPDEST SWAP2 POP POP PUSH2 0x690 JUMP JUMPDEST POP DUP8 MLOAD PUSH1 0x5 SWAP1 DUP2 SHL PUSH1 0x20 DUP1 DUP12 ADD SWAP2 SWAP1 SWAP2 KECCAK256 DUP10 MLOAD DUP4 SHL DUP11 DUP4 ADD KECCAK256 DUP5 MLOAD SWAP1 SWAP4 SHL DUP5 DUP4 ADD KECCAK256 PUSH1 0x40 DUP1 MLOAD PUSH32 0x47B77FF24F11D889436314CD63FDEFEB0B0F9531DA691F5627F546C47E5F002C DUP2 DUP7 ADD MSTORE CALLER DUP2 DUP4 ADD MSTORE PUSH1 0x60 DUP2 ADD SWAP4 SWAP1 SWAP4 MSTORE PUSH1 0x80 DUP4 ADD SWAP5 SWAP1 SWAP5 MSTORE PUSH1 0xA0 DUP3 ADD MSTORE PUSH1 0xC0 DUP2 ADD DUP8 SWAP1 MSTORE PUSH1 0xE0 DUP1 DUP3 ADD DUP8 SWAP1 MSTORE DUP4 MLOAD DUP1 DUP4 SUB SWAP1 SWAP2 ADD DUP2 MSTORE PUSH2 0x100 SWAP1 SWAP2 ADD SWAP1 SWAP3 MSTORE DUP2 MLOAD SWAP2 ADD KECCAK256 PUSH2 0x12F SLOAD PUSH1 0x1 PUSH1 0x1 PUSH1 0xA0 SHL SUB AND PUSH2 0x797 PUSH2 0x791 DUP4 PUSH2 0x1828 JUMP JUMPDEST DUP6 PUSH2 0x187C JUMP JUMPDEST PUSH1 0x1 PUSH1 0x1 PUSH1 0xA0 SHL SUB AND EQ PUSH2 0x7BD JUMPI PUSH1 0x40 MLOAD PUSH3 0x461BCD PUSH1 0xE5 SHL DUP2 MSTORE PUSH1 0x4 ADD PUSH2 0x5F3 SWAP1 PUSH2 0x270C JUMP JUMPDEST PUSH1 0x0 DUP5 DUP2 MSTORE PUSH2 0x132 PUSH1 0x20 MSTORE PUSH1 0x40 SWAP1 KECCAK256 SLOAD PUSH1 0xFF AND ISZERO PUSH2 0x81D JUMPI PUSH1 0x40 MLOAD PUSH3 0x461BCD PUSH1 0xE5 SHL DUP2 MSTORE PUSH1 0x20 PUSH1 0x4 DUP3 ADD MSTORE PUSH1 0x1B PUSH1 0x24 DUP3 ADD MSTORE PUSH32 0x4A61736D696E654D696E7465723A206E6F6E6365207265706C61790000000000 PUSH1 0x44 DUP3 ADD MSTORE PUSH1 0x64 ADD PUSH2 0x5F3 JUMP JUMPDEST PUSH1 0x0 DUP5 DUP2 MSTORE PUSH2 0x132 PUSH1 0x20 MSTORE PUSH1 0x40 DUP1 DUP3 KECCAK256 DUP1 SLOAD PUSH1 0xFF NOT AND PUSH1 0x1 OR SWAP1 SSTORE MLOAD DUP6 SWAP2 PUSH32 0x70CD0C14252EDEF0440009634A4E86036A1747C9FBE7E4C2C05B8B62F9C410E2 SWAP2 LOG2 PUSH1 0x0 JUMPDEST DUP7 MLOAD DUP2 LT ISZERO PUSH2 0x93E JUMPI PUSH1 0x0 DUP8 DUP3 DUP2 MLOAD DUP2 LT PUSH2 0x87E JUMPI PUSH2 0x87E PUSH2 0x26CF JUMP JUMPDEST PUSH1 0x20 MUL PUSH1 0x20 ADD ADD MLOAD SWAP1 POP DUP1 MLOAD PUSH1 0x0 EQ PUSH2 0x92B JUMPI PUSH32 0x0 PUSH1 0x1 PUSH1 0x1 PUSH1 0xA0 SHL SUB AND PUSH4 0x7E3810C DUP13 DUP5 DUP2 MLOAD DUP2 LT PUSH2 0x8D2 JUMPI PUSH2 0x8D2 PUSH2 0x26CF JUMP JUMPDEST PUSH1 0x20 MUL PUSH1 0x20 ADD ADD MLOAD DUP4 PUSH1 0x40 MLOAD DUP4 PUSH4 0xFFFFFFFF AND PUSH1 0xE0 SHL DUP2 MSTORE PUSH1 0x4 ADD PUSH2 0x8F8 SWAP3 SWAP2 SWAP1 PUSH2 0x2755 JUMP JUMPDEST PUSH1 0x0 PUSH1 0x40 MLOAD DUP1 DUP4 SUB DUP2 PUSH1 0x0 DUP8 DUP1 EXTCODESIZE ISZERO DUP1 ISZERO PUSH2 0x912 JUMPI PUSH1 0x0 DUP1 REVERT JUMPDEST POP GAS CALL ISZERO DUP1 ISZERO PUSH2 0x926 JUMPI RETURNDATASIZE PUSH1 0x0 DUP1 RETURNDATACOPY RETURNDATASIZE PUSH1 0x0 REVERT JUMPDEST POP POP POP POP JUMPDEST POP DUP1 PUSH2 0x936 DUP2 PUSH2 0x26E5 JUMP JUMPDEST SWAP2 POP POP PUSH2 0x861 JUMP JUMPDEST POP PUSH1 0x40 MLOAD PUSH4 0xFBFEFFD PUSH1 0xE1 SHL DUP2 MSTORE PUSH1 0x1 PUSH1 0x1 PUSH1 0xA0 SHL SUB PUSH32 0x0 AND SWAP1 PUSH4 0x1F7FDFFA SWAP1 PUSH2 0x991 SWAP1 DUP14 SWAP1 DUP14 SWAP1 DUP14 SWAP1 DUP14 SWAP1 PUSH1 0x4 ADD PUSH2 0x27B1 JUMP JUMPDEST PUSH1 0x0 PUSH1 0x40 MLOAD DUP1 DUP4 SUB DUP2 PUSH1 0x0 DUP8 DUP1 EXTCODESIZE ISZERO DUP1 ISZERO PUSH2 0x9AB JUMPI PUSH1 0x0 DUP1 REVERT JUMPDEST POP GAS CALL ISZERO DUP1 ISZERO PUSH2 0x9BF JUMPI RETURNDATASIZE PUSH1 0x0 DUP1 RETURNDATACOPY RETURNDATASIZE PUSH1 0x0 REVERT JUMPDEST POP POP POP POP POP POP POP POP POP POP POP POP POP POP JUMP JUMPDEST PUSH1 0x0 PUSH2 0x9D9 PUSH2 0x18A0 JUMP JUMPDEST SWAP1 POP SWAP1 JUMP JUMPDEST PUSH1 0x1 PUSH1 0x1 PUSH1 0xA0 SHL SUB PUSH32 0x0 AND ADDRESS SUB PUSH2 0xA26 JUMPI PUSH1 0x40 MLOAD PUSH3 0x461BCD PUSH1 0xE5 SHL DUP2 MSTORE PUSH1 0x4 ADD PUSH2 0x5F3 SWAP1 PUSH2 0x2804 JUMP JUMPDEST PUSH32 0x0 PUSH1 0x1 PUSH1 0x1 PUSH1 0xA0 SHL SUB AND PUSH2 0xA58 PUSH2 0x18D7 JUMP JUMPDEST PUSH1 0x1 PUSH1 0x1 PUSH1 0xA0 SHL SUB AND EQ PUSH2 0xA7E JUMPI PUSH1 0x40 MLOAD PUSH3 0x461BCD PUSH1 0xE5 SHL DUP2 MSTORE PUSH1 0x4 ADD PUSH2 0x5F3 SWAP1 PUSH2 0x2850 JUMP JUMPDEST PUSH2 0xA87 DUP2 PUSH2 0x1905 JUMP JUMPDEST PUSH1 0x40 DUP1 MLOAD PUSH1 0x0 DUP1 DUP3 MSTORE PUSH1 0x20 DUP3 ADD SWAP1 SWAP3 MSTORE PUSH2 0xAA3 SWAP2 DUP4 SWAP2 SWAP1 PUSH2 0x190D JUMP JUMPDEST POP JUMP JUMPDEST DUP3 TIMESTAMP GT ISZERO PUSH2 0xAEF JUMPI PUSH1 0x40 MLOAD PUSH3 0x461BCD PUSH1 0xE5 SHL DUP2 MSTORE PUSH1 0x20 PUSH1 0x4 DUP3 ADD MSTORE PUSH1 0x16 PUSH1 0x24 DUP3 ADD MSTORE PUSH22 0x12985CDB5A5B99535A5B9D195C8E88195E1C1A5C9959 PUSH1 0x52 SHL PUSH1 0x44 DUP3 ADD MSTORE PUSH1 0x64 ADD PUSH2 0x5F3 JUMP JUMPDEST DUP4 MLOAD PUSH1 0x20 DUP1 DUP7 ADD SWAP2 SWAP1 SWAP2 KECCAK256 PUSH1 0x40 DUP1 MLOAD PUSH32 0x7ED266A150D7268B399E18C9036AD7FF35A4BF8F1DDF162234A3684916E16DC8 DUP2 DUP6 ADD MSTORE CALLER DUP2 DUP4 ADD MSTORE PUSH1 0x60 DUP2 ADD DUP12 SWAP1 MSTORE PUSH1 0x80 DUP2 ADD DUP11 SWAP1 MSTORE PUSH1 0xA0 DUP2 ADD SWAP3 SWAP1 SWAP3 MSTORE PUSH1 0xC0 DUP3 ADD DUP7 SWAP1 MSTORE PUSH1 0xE0 DUP1 DUP4 ADD DUP7 SWAP1 MSTORE DUP2 MLOAD DUP1 DUP5 SUB SWAP1 SWAP2 ADD DUP2 MSTORE PUSH2 0x100 SWAP1 SWAP3 ADD SWAP1 MSTORE DUP1 MLOAD SWAP2 ADD KECCAK256 PUSH2 0x12F SLOAD PUSH1 0x1 PUSH1 0x1 PUSH1 0xA0 SHL SUB AND PUSH2 0xB83 PUSH2 0xB7D DUP4 PUSH2 0x1828 JUMP JUMPDEST DUP5 PUSH2 0x187C JUMP JUMPDEST PUSH1 0x1 PUSH1 0x1 PUSH1 0xA0 SHL SUB AND EQ PUSH2 0xBA9 JUMPI PUSH1 0x40 MLOAD PUSH3 0x461BCD PUSH1 0xE5 SHL DUP2 MSTORE PUSH1 0x4 ADD PUSH2 0x5F3 SWAP1 PUSH2 0x270C JUMP JUMPDEST PUSH1 0x0 DUP4 DUP2 MSTORE PUSH2 0x132 PUSH1 0x20 MSTORE PUSH1 0x40 SWAP1 KECCAK256 SLOAD PUSH1 0xFF AND ISZERO PUSH2 0xC09 JUMPI PUSH1 0x40 MLOAD PUSH3 0x461BCD PUSH1 0xE5 SHL DUP2 MSTORE PUSH1 0x20 PUSH1 0x4 DUP3 ADD MSTORE PUSH1 0x1B PUSH1 0x24 DUP3 ADD MSTORE PUSH32 0x4A61736D696E654D696E7465723A206E6F6E6365207265706C61790000000000 PUSH1 0x44 DUP3 ADD MSTORE PUSH1 0x64 ADD PUSH2 0x5F3 JUMP JUMPDEST PUSH1 0x0 DUP4 DUP2 MSTORE PUSH2 0x132 PUSH1 0x20 MSTORE PUSH1 0x40 DUP1 DUP3 KECCAK256 DUP1 SLOAD PUSH1 0xFF NOT AND PUSH1 0x1 OR SWAP1 SSTORE MLOAD DUP5 SWAP2 PUSH32 0x70CD0C14252EDEF0440009634A4E86036A1747C9FBE7E4C2C05B8B62F9C410E2 SWAP2 LOG2 DUP5 MLOAD ISZERO PUSH2 0xCD2 JUMPI PUSH1 0x40 MLOAD PUSH4 0x1F8E043 PUSH1 0xE2 SHL DUP2 MSTORE PUSH1 0x1 PUSH1 0x1 PUSH1 0xA0 SHL SUB PUSH32 0x0 AND SWAP1 PUSH4 0x7E3810C SWAP1 PUSH2 0xC9F SWAP1 DUP12 SWAP1 DUP10 SWAP1 PUSH1 0x4 ADD PUSH2 0x2755 JUMP JUMPDEST PUSH1 0x0 PUSH1 0x40 MLOAD DUP1 DUP4 SUB DUP2 PUSH1 0x0 DUP8 DUP1 EXTCODESIZE ISZERO DUP1 ISZERO PUSH2 0xCB9 JUMPI PUSH1 0x0 DUP1 REVERT JUMPDEST POP GAS CALL ISZERO DUP1 ISZERO PUSH2 0xCCD JUMPI RETURNDATASIZE PUSH1 0x0 DUP1 RETURNDATACOPY RETURNDATASIZE PUSH1 0x0 REVERT JUMPDEST POP POP POP POP JUMPDEST PUSH1 0x40 MLOAD PUSH4 0x731133E9 PUSH1 0xE0 SHL DUP2 MSTORE PUSH1 0x1 PUSH1 0x1 PUSH1 0xA0 SHL SUB PUSH32 0x0 AND SWAP1 PUSH4 0x731133E9 SWAP1 PUSH2 0xD24 SWAP1 DUP13 SWAP1 DUP13 SWAP1 DUP13 SWAP1 DUP13 SWAP1 PUSH1 0x4 ADD PUSH2 0x289C JUMP JUMPDEST PUSH1 0x0 PUSH1 0x40 MLOAD DUP1 DUP4 SUB DUP2 PUSH1 0x0 DUP8 DUP1 EXTCODESIZE ISZERO DUP1 ISZERO PUSH2 0xD3E JUMPI PUSH1 0x0 DUP1 REVERT JUMPDEST POP GAS CALL ISZERO DUP1 ISZERO PUSH2 0xD52 JUMPI RETURNDATASIZE PUSH1 0x0 DUP1 RETURNDATACOPY RETURNDATASIZE PUSH1 0x0 REVERT JUMPDEST POP POP POP POP POP POP POP POP POP POP POP POP POP JUMP JUMPDEST PUSH1 0x1 PUSH1 0x1 PUSH1 0xA0 SHL SUB PUSH32 0x0 AND ADDRESS SUB PUSH2 0xDA9 JUMPI PUSH1 0x40 MLOAD PUSH3 0x461BCD PUSH1 0xE5 SHL DUP2 MSTORE PUSH1 0x4 ADD PUSH2 0x5F3 SWAP1 PUSH2 0x2804 JUMP JUMPDEST PUSH32 0x0 PUSH1 0x1 PUSH1 0x1 PUSH1 0xA0 SHL SUB AND PUSH2 0xDDB PUSH2 0x18D7 JUMP JUMPDEST PUSH1 0x1 PUSH1 0x1 PUSH1 0xA0 SHL SUB AND EQ PUSH2 0xE01 JUMPI PUSH1 0x40 MLOAD PUSH3 0x461BCD PUSH1 0xE5 SHL DUP2 MSTORE PUSH1 0x4 ADD PUSH2 0x5F3 SWAP1 PUSH2 0x2850 JUMP JUMPDEST PUSH2 0xE0A DUP3 PUSH2 0x1905 JUMP JUMPDEST PUSH2 0xE16 DUP3 DUP3 PUSH1 0x1 PUSH2 0x190D JUMP JUMPDEST POP POP JUMP JUMPDEST PUSH1 0x0 ADDRESS PUSH1 0x1 PUSH1 0x1 PUSH1 0xA0 SHL SUB PUSH32 0x0 AND EQ PUSH2 0xEBA JUMPI PUSH1 0x40 MLOAD PUSH3 0x461BCD PUSH1 0xE5 SHL DUP2 MSTORE PUSH1 0x20 PUSH1 0x4 DUP3 ADD MSTORE PUSH1 0x38 PUSH1 0x24 DUP3 ADD MSTORE PUSH32 0x555550535570677261646561626C653A206D757374206E6F742062652063616C PUSH1 0x44 DUP3 ADD MSTORE PUSH32 0x6C6564207468726F7567682064656C656761746563616C6C0000000000000000 PUSH1 0x64 DUP3 ADD MSTORE PUSH1 0x84 ADD PUSH2 0x5F3 JUMP JUMPDEST POP PUSH32 0x360894A13BA1A3210667C828492DB98DCA3E2076CC3735A920A3CA505D382BBC SWAP1 JUMP JUMPDEST PUSH2 0x131 DUP1 SLOAD PUSH2 0x50A SWAP1 PUSH2 0x2695 JUMP JUMPDEST PUSH2 0xEF5 PUSH2 0x1A8F JUMP JUMPDEST PUSH2 0xEFF PUSH1 0x0 PUSH2 0x1AE9 JUMP JUMPDEST JUMP JUMPDEST PUSH1 0x65 SLOAD CALLER SWAP1 PUSH1 0x1 PUSH1 0x1 PUSH1 0xA0 SHL SUB AND DUP2 EQ PUSH2 0xF6F JUMPI PUSH1 0x40 MLOAD PUSH3 0x461BCD PUSH1 0xE5 SHL DUP2 MSTORE PUSH1 0x20 PUSH1 0x4 DUP3 ADD MSTORE PUSH1 0x29 PUSH1 0x24 DUP3 ADD MSTORE PUSH32 0x4F776E61626C6532537465703A2063616C6C6572206973206E6F742074686520 PUSH1 0x44 DUP3 ADD MSTORE PUSH9 0x3732BB9037BBB732B9 PUSH1 0xB9 SHL PUSH1 0x64 DUP3 ADD MSTORE PUSH1 0x84 ADD PUSH2 0x5F3 JUMP JUMPDEST PUSH2 0xAA3 DUP2 PUSH2 0x1AE9 JUMP JUMPDEST PUSH1 0x1 PUSH1 0x1 PUSH1 0xA0 SHL SUB PUSH32 0x0 AND ADDRESS SUB PUSH2 0xFC0 JUMPI PUSH1 0x40 MLOAD PUSH3 0x461BCD PUSH1 0xE5 SHL DUP2 MSTORE PUSH1 0x4 ADD PUSH2 0x5F3 SWAP1 PUSH2 0x2804 JUMP JUMPDEST PUSH32 0x0 PUSH1 0x1 PUSH1 0x1 PUSH1 0xA0 SHL SUB AND PUSH2 0xFF2 PUSH2 0x18D7 JUMP JUMPDEST PUSH1 0x1 PUSH1 0x1 PUSH1 0xA0 SHL SUB AND EQ PUSH2 0x1018 JUMPI PUSH1 0x40 MLOAD PUSH3 0x461BCD PUSH1 0xE5 SHL DUP2 MSTORE PUSH1 0x4 ADD PUSH2 0x5F3 SWAP1 PUSH2 0x2850 JUMP JUMPDEST PUSH1 0x40 MLOAD PUSH4 0x3A6B011 PUSH1 0xE6 SHL DUP2 MSTORE PUSH1 0x4 DUP2 ADD DUP5 SWAP1 MSTORE PUSH32 0x0 PUSH1 0x1 PUSH1 0x1 PUSH1 0xA0 SHL SUB AND SWAP1 PUSH4 0xE9AC0440 SWAP1 PUSH1 0x24 ADD PUSH1 0x20 PUSH1 0x40 MLOAD DUP1 DUP4 SUB DUP2 DUP7 GAS STATICCALL ISZERO DUP1 ISZERO PUSH2 0x107D JUMPI RETURNDATASIZE PUSH1 0x0 DUP1 RETURNDATACOPY RETURNDATASIZE PUSH1 0x0 REVERT JUMPDEST POP POP POP POP PUSH1 0x40 MLOAD RETURNDATASIZE PUSH1 0x1F NOT PUSH1 0x1F DUP3 ADD AND DUP3 ADD DUP1 PUSH1 0x40 MSTORE POP DUP2 ADD SWAP1 PUSH2 0x10A1 SWAP2 SWAP1 PUSH2 0x28D4 JUMP JUMPDEST ISZERO PUSH2 0x10EE JUMPI PUSH1 0x40 MLOAD PUSH3 0x461BCD PUSH1 0xE5 SHL DUP2 MSTORE PUSH1 0x20 PUSH1 0x4 DUP3 ADD MSTORE PUSH1 0x1C PUSH1 0x24 DUP3 ADD MSTORE PUSH32 0x4A61736D696E654D696E7465723A2066726F7A656E2073657269657300000000 PUSH1 0x44 DUP3 ADD MSTORE PUSH1 0x64 ADD PUSH2 0x5F3 JUMP JUMPDEST CALLER PUSH1 0x1 PUSH1 0x1 PUSH1 0xA0 SHL SUB AND PUSH32 0x422475C8264E559FA982D4F66450A9BD1D5BEE42CF8A98F6E032D1715B859552 DUP5 DUP5 DUP5 PUSH1 0x40 MLOAD PUSH2 0x112B SWAP4 SWAP3 SWAP2 SWAP1 PUSH2 0x28F6 JUMP JUMPDEST PUSH1 0x40 MLOAD DUP1 SWAP2 SUB SWAP1 LOG2 PUSH1 0x40 MLOAD PUSH4 0x7A94C565 PUSH1 0xE1 SHL DUP2 MSTORE CALLER PUSH1 0x4 DUP3 ADD MSTORE PUSH1 0x24 DUP2 ADD DUP5 SWAP1 MSTORE PUSH1 0x44 DUP2 ADD DUP4 SWAP1 MSTORE PUSH32 0x0 PUSH1 0x1 PUSH1 0x1 PUSH1 0xA0 SHL SUB AND SWAP1 PUSH4 0xF5298ACA SWAP1 PUSH1 0x64 ADD JUMPDEST PUSH1 0x0 PUSH1 0x40 MLOAD DUP1 DUP4 SUB DUP2 PUSH1 0x0 DUP8 DUP1 EXTCODESIZE ISZERO DUP1 ISZERO PUSH2 0x11A3 JUMPI PUSH1 0x0 DUP1 REVERT JUMPDEST POP GAS CALL ISZERO DUP1 ISZERO PUSH2 0x11B7 JUMPI RETURNDATASIZE PUSH1 0x0 DUP1 RETURNDATACOPY RETURNDATASIZE PUSH1 0x0 REVERT JUMPDEST POP POP POP POP POP POP POP JUMP JUMPDEST PUSH2 0x11C8 PUSH2 0x1A8F JUMP JUMPDEST PUSH2 0x12F DUP1 SLOAD PUSH1 0x1 PUSH1 0x1 PUSH1 0xA0 SHL SUB NOT AND PUSH1 0x1 PUSH1 0x1 PUSH1 0xA0 SHL SUB DUP4 AND SWAP1 DUP2 OR SWAP1 SWAP2 SSTORE PUSH1 0x40 MLOAD PUSH32 0x9775531310B2880B61484ED85CBB0B491C8FDE3A07F289C63B92551782794497 SWAP1 PUSH1 0x0 SWAP1 LOG2 POP JUMP JUMPDEST PUSH1 0x0 SLOAD PUSH2 0x100 SWAP1 DIV PUSH1 0xFF AND ISZERO DUP1 DUP1 ISZERO PUSH2 0x1233 JUMPI POP PUSH1 0x0 SLOAD PUSH1 0x1 PUSH1 0xFF SWAP1 SWAP2 AND LT JUMPDEST DUP1 PUSH2 0x124D JUMPI POP ADDRESS EXTCODESIZE ISZERO DUP1 ISZERO PUSH2 0x124D JUMPI POP PUSH1 0x0 SLOAD PUSH1 0xFF AND PUSH1 0x1 EQ JUMPDEST PUSH2 0x12B0 JUMPI PUSH1 0x40 MLOAD PUSH3 0x461BCD PUSH1 0xE5 SHL DUP2 MSTORE PUSH1 0x20 PUSH1 0x4 DUP3 ADD MSTORE PUSH1 0x2E PUSH1 0x24 DUP3 ADD MSTORE PUSH32 0x496E697469616C697A61626C653A20636F6E747261637420697320616C726561 PUSH1 0x44 DUP3 ADD MSTORE PUSH14 0x191E481A5B9A5D1A585B1A5E9959 PUSH1 0x92 SHL PUSH1 0x64 DUP3 ADD MSTORE PUSH1 0x84 ADD PUSH2 0x5F3 JUMP JUMPDEST PUSH1 0x0 DUP1 SLOAD PUSH1 0xFF NOT AND PUSH1 0x1 OR SWAP1 SSTORE DUP1 ISZERO PUSH2 0x12D3 JUMPI PUSH1 0x0 DUP1 SLOAD PUSH2 0xFF00 NOT AND PUSH2 0x100 OR SWAP1 SSTORE JUMPDEST PUSH1 0x1 PUSH1 0x1 PUSH1 0xA0 SHL SUB PUSH32 0x0 AND ADDRESS SUB PUSH2 0x131B JUMPI PUSH1 0x40 MLOAD PUSH3 0x461BCD PUSH1 0xE5 SHL DUP2 MSTORE PUSH1 0x4 ADD PUSH2 0x5F3 SWAP1 PUSH2 0x2804 JUMP JUMPDEST PUSH32 0x0 PUSH1 0x1 PUSH1 0x1 PUSH1 0xA0 SHL SUB AND PUSH2 0x134D PUSH2 0x18D7 JUMP JUMPDEST PUSH1 0x1 PUSH1 0x1 PUSH1 0xA0 SHL SUB AND EQ PUSH2 0x1373 JUMPI PUSH1 0x40 MLOAD PUSH3 0x461BCD PUSH1 0xE5 SHL DUP2 MSTORE PUSH1 0x4 ADD PUSH2 0x5F3 SWAP1 PUSH2 0x2850 JUMP JUMPDEST PUSH2 0x137C DUP3 PUSH2 0x1AE9 JUMP JUMPDEST PUSH2 0x1384 PUSH2 0x1B02 JUMP JUMPDEST PUSH2 0x138E DUP6 DUP6 PUSH2 0x1B29 JUMP JUMPDEST PUSH2 0x130 PUSH2 0x139B DUP7 DUP3 PUSH2 0x2963 JUMP JUMPDEST POP PUSH2 0x131 PUSH2 0x13A9 DUP6 DUP3 PUSH2 0x2963 JUMP JUMPDEST POP PUSH2 0x12F DUP1 SLOAD PUSH1 0x1 PUSH1 0x1 PUSH1 0xA0 SHL SUB NOT AND PUSH1 0x1 PUSH1 0x1 PUSH1 0xA0 SHL SUB DUP6 AND SWAP1 DUP2 OR SWAP1 SWAP2 SSTORE PUSH1 0x40 MLOAD PUSH32 0x9775531310B2880B61484ED85CBB0B491C8FDE3A07F289C63B92551782794497 SWAP1 PUSH1 0x0 SWAP1 LOG2 DUP1 ISZERO PUSH2 0x1438 JUMPI PUSH1 0x0 DUP1 SLOAD PUSH2 0xFF00 NOT AND SWAP1 SSTORE PUSH1 0x40 MLOAD PUSH1 0x1 DUP2 MSTORE PUSH32 0x7F26B83FF96E1F2B6A682F133852F6798A09C465DA95921460CEFB3847402498 SWAP1 PUSH1 0x20 ADD PUSH1 0x40 MLOAD DUP1 SWAP2 SUB SWAP1 LOG1 JUMPDEST POP POP POP POP POP JUMP JUMPDEST PUSH1 0x1 PUSH1 0x1 PUSH1 0xA0 SHL SUB PUSH32 0x0 AND ADDRESS SUB PUSH2 0x1487 JUMPI PUSH1 0x40 MLOAD PUSH3 0x461BCD PUSH1 0xE5 SHL DUP2 MSTORE PUSH1 0x4 ADD PUSH2 0x5F3 SWAP1 PUSH2 0x2804 JUMP JUMPDEST PUSH32 0x0 PUSH1 0x1 PUSH1 0x1 PUSH1 0xA0 SHL SUB AND PUSH2 0x14B9 PUSH2 0x18D7 JUMP JUMPDEST PUSH1 0x1 PUSH1 0x1 PUSH1 0xA0 SHL SUB AND EQ PUSH2 0x14DF JUMPI PUSH1 0x40 MLOAD PUSH3 0x461BCD PUSH1 0xE5 SHL DUP2 MSTORE PUSH1 0x4 ADD PUSH2 0x5F3 SWAP1 PUSH2 0x2850 JUMP JUMPDEST PUSH1 0x0 JUMPDEST DUP4 MLOAD DUP2 LT ISZERO PUSH2 0x15F2 JUMPI PUSH32 0x0 PUSH1 0x1 PUSH1 0x1 PUSH1 0xA0 SHL SUB AND PUSH4 0xE9AC0440 DUP6 DUP4 DUP2 MLOAD DUP2 LT PUSH2 0x152C JUMPI PUSH2 0x152C PUSH2 0x26CF JUMP JUMPDEST PUSH1 0x20 MUL PUSH1 0x20 ADD ADD MLOAD PUSH1 0x40 MLOAD DUP3 PUSH4 0xFFFFFFFF AND PUSH1 0xE0 SHL DUP2 MSTORE PUSH1 0x4 ADD PUSH2 0x1552 SWAP2 DUP2 MSTORE PUSH1 0x20 ADD SWAP1 JUMP JUMPDEST PUSH1 0x20 PUSH1 0x40 MLOAD DUP1 DUP4 SUB DUP2 DUP7 GAS STATICCALL ISZERO DUP1 ISZERO PUSH2 0x156F JUMPI RETURNDATASIZE PUSH1 0x0 DUP1 RETURNDATACOPY RETURNDATASIZE PUSH1 0x0 REVERT JUMPDEST POP POP POP POP PUSH1 0x40 MLOAD RETURNDATASIZE PUSH1 0x1F NOT PUSH1 0x1F DUP3 ADD AND DUP3 ADD DUP1 PUSH1 0x40 MSTORE POP DUP2 ADD SWAP1 PUSH2 0x1593 SWAP2 SWAP1 PUSH2 0x28D4 JUMP JUMPDEST ISZERO PUSH2 0x15E0 JUMPI PUSH1 0x40 MLOAD PUSH3 0x461BCD PUSH1 0xE5 SHL DUP2 MSTORE PUSH1 0x20 PUSH1 0x4 DUP3 ADD MSTORE PUSH1 0x1C PUSH1 0x24 DUP3 ADD MSTORE PUSH32 0x4A61736D696E654D696E7465723A2066726F7A656E2073657269657300000000 PUSH1 0x44 DUP3 ADD MSTORE PUSH1 0x64 ADD PUSH2 0x5F3 JUMP JUMPDEST DUP1 PUSH2 0x15EA DUP2 PUSH2 0x26E5 JUMP JUMPDEST SWAP2 POP POP PUSH2 0x14E2 JUMP JUMPDEST POP CALLER PUSH1 0x1 PUSH1 0x1 PUSH1 0xA0 SHL SUB AND PUSH32 0xF989B967AB06CB95FFA87EDFC41B030132A3A687E55E92FAF63512234D18E28F DUP5 DUP5 DUP5 PUSH1 0x40 MLOAD PUSH2 0x1630 SWAP4 SWAP3 SWAP2 SWAP1 PUSH2 0x2A23 JUMP JUMPDEST PUSH1 0x40 MLOAD DUP1 SWAP2 SUB SWAP1 LOG2 PUSH1 0x40 MLOAD PUSH4 0x1AC83115 PUSH1 0xE2 SHL DUP2 MSTORE PUSH32 0x0 PUSH1 0x1 PUSH1 0x1 PUSH1 0xA0 SHL SUB AND SWAP1 PUSH4 0x6B20C454 SWAP1 PUSH2 0x1189 SWAP1 CALLER SWAP1 DUP8 SWAP1 DUP8 SWAP1 PUSH1 0x4 ADD PUSH2 0x2A5C JUMP JUMPDEST PUSH1 0x40 DUP1 MLOAD PUSH32 0xB0426304B718D58E27F05888D480CC1C9C956AFAAB3BA8D45AFCCE29F30D6448 PUSH1 0x20 DUP1 DUP4 ADD SWAP2 SWAP1 SWAP2 MSTORE DUP2 DUP4 ADD DUP6 SWAP1 MSTORE DUP3 MLOAD DUP1 DUP4 SUB DUP5 ADD DUP2 MSTORE PUSH1 0x60 SWAP1 SWAP3 ADD SWAP1 SWAP3 MSTORE DUP1 MLOAD SWAP2 ADD KECCAK256 PUSH2 0x12F SLOAD PUSH1 0x1 PUSH1 0x1 PUSH1 0xA0 SHL SUB AND PUSH2 0x16EB PUSH2 0xB7D DUP4 PUSH2 0x1828 JUMP JUMPDEST PUSH1 0x1 PUSH1 0x1 PUSH1 0xA0 SHL SUB AND EQ PUSH2 0x1711 JUMPI PUSH1 0x40 MLOAD PUSH3 0x461BCD PUSH1 0xE5 SHL DUP2 MSTORE PUSH1 0x4 ADD PUSH2 0x5F3 SWAP1 PUSH2 0x270C JUMP JUMPDEST PUSH1 0x0 DUP4 DUP2 MSTORE PUSH2 0x132 PUSH1 0x20 MSTORE PUSH1 0x40 SWAP1 KECCAK256 SLOAD PUSH1 0xFF AND ISZERO PUSH2 0x1771 JUMPI PUSH1 0x40 MLOAD PUSH3 0x461BCD PUSH1 0xE5 SHL DUP2 MSTORE PUSH1 0x20 PUSH1 0x4 DUP3 ADD MSTORE PUSH1 0x1B PUSH1 0x24 DUP3 ADD MSTORE PUSH32 0x4A61736D696E654D696E7465723A206E6F6E6365207265706C61790000000000 PUSH1 0x44 DUP3 ADD MSTORE PUSH1 0x64 ADD PUSH2 0x5F3 JUMP JUMPDEST PUSH1 0x0 DUP4 DUP2 MSTORE PUSH2 0x132 PUSH1 0x20 MSTORE PUSH1 0x40 DUP1 DUP3 KECCAK256 DUP1 SLOAD PUSH1 0xFF NOT AND PUSH1 0x1 OR SWAP1 SSTORE MLOAD DUP5 SWAP2 PUSH32 0x70CD0C14252EDEF0440009634A4E86036A1747C9FBE7E4C2C05B8B62F9C410E2 SWAP2 LOG2 POP POP POP JUMP JUMPDEST PUSH2 0x17BF PUSH2 0x1A8F JUMP JUMPDEST PUSH1 0x65 DUP1 SLOAD PUSH1 0x1 PUSH1 0x1 PUSH1 0xA0 SHL SUB DUP4 AND PUSH1 0x1 PUSH1 0x1 PUSH1 0xA0 SHL SUB NOT SWAP1 SWAP2 AND DUP2 OR SWAP1 SWAP2 SSTORE PUSH2 0x17F0 PUSH1 0x33 SLOAD PUSH1 0x1 PUSH1 0x1 PUSH1 0xA0 SHL SUB AND SWAP1 JUMP JUMPDEST PUSH1 0x1 PUSH1 0x1 PUSH1 0xA0 SHL SUB AND PUSH32 0x38D16B8CAC22D99FC7C124B9CD0DE2D3FA1FAEF420BFE791D8C362D765E22700 PUSH1 0x40 MLOAD PUSH1 0x40 MLOAD DUP1 SWAP2 SUB SWAP1 LOG3 POP JUMP JUMPDEST PUSH1 0x0 PUSH2 0x1876 PUSH2 0x1835 PUSH2 0x18A0 JUMP JUMPDEST DUP4 PUSH1 0x40 MLOAD PUSH2 0x1901 PUSH1 0xF0 SHL PUSH1 0x20 DUP3 ADD MSTORE PUSH1 0x22 DUP2 ADD DUP4 SWAP1 MSTORE PUSH1 0x42 DUP2 ADD DUP3 SWAP1 MSTORE PUSH1 0x0 SWAP1 PUSH1 0x62 ADD PUSH1 0x40 MLOAD PUSH1 0x20 DUP2 DUP4 SUB SUB DUP2 MSTORE SWAP1 PUSH1 0x40 MSTORE DUP1 MLOAD SWAP1 PUSH1 0x20 ADD KECCAK256 SWAP1 POP SWAP3 SWAP2 POP POP JUMP JUMPDEST SWAP3 SWAP2 POP POP JUMP JUMPDEST PUSH1 0x0 DUP1 PUSH1 0x0 PUSH2 0x188B DUP6 DUP6 PUSH2 0x1B5A JUMP JUMPDEST SWAP2 POP SWAP2 POP PUSH2 0x1898 DUP2 PUSH2 0x1B9F JUMP JUMPDEST POP SWAP4 SWAP3 POP POP POP JUMP JUMPDEST PUSH1 0x0 PUSH2 0x9D9 PUSH32 0x8B73C3C69BB8FE3D512ECC4CF759CC79239F7B179B0FFACAA9A75D522B39400F PUSH2 0x18CF PUSH1 0xFB SLOAD SWAP1 JUMP JUMPDEST PUSH1 0xFC SLOAD PUSH2 0x1CE9 JUMP JUMPDEST PUSH32 0x360894A13BA1A3210667C828492DB98DCA3E2076CC3735A920A3CA505D382BBC SLOAD PUSH1 0x1 PUSH1 0x1 PUSH1 0xA0 SHL SUB AND SWAP1 JUMP JUMPDEST PUSH2 0xAA3 PUSH2 0x1A8F JUMP JUMPDEST PUSH32 0x4910FDFA16FED3260ED0E7147F7CC6DA11A60208B5B9406D12A635614FFD9143 SLOAD PUSH1 0xFF AND ISZERO PUSH2 0x1945 JUMPI PUSH2 0x1940 DUP4 PUSH2 0x1D33 JUMP JUMPDEST POP POP POP JUMP JUMPDEST DUP3 PUSH1 0x1 PUSH1 0x1 PUSH1 0xA0 SHL SUB AND PUSH4 0x52D1902D PUSH1 0x40 MLOAD DUP2 PUSH4 0xFFFFFFFF AND PUSH1 0xE0 SHL DUP2 MSTORE PUSH1 0x4 ADD PUSH1 0x20 PUSH1 0x40 MLOAD DUP1 DUP4 SUB DUP2 DUP7 GAS STATICCALL SWAP3 POP POP POP DUP1 ISZERO PUSH2 0x199F JUMPI POP PUSH1 0x40 DUP1 MLOAD PUSH1 0x1F RETURNDATASIZE SWAP1 DUP2 ADD PUSH1 0x1F NOT AND DUP3 ADD SWAP1 SWAP3 MSTORE PUSH2 0x199C SWAP2 DUP2 ADD SWAP1 PUSH2 0x2A90 JUMP JUMPDEST PUSH1 0x1 JUMPDEST PUSH2 0x1A02 JUMPI PUSH1 0x40 MLOAD PUSH3 0x461BCD PUSH1 0xE5 SHL DUP2 MSTORE PUSH1 0x20 PUSH1 0x4 DUP3 ADD MSTORE PUSH1 0x2E PUSH1 0x24 DUP3 ADD MSTORE PUSH32 0x45524331393637557067726164653A206E657720696D706C656D656E74617469 PUSH1 0x44 DUP3 ADD MSTORE PUSH14 0x6F6E206973206E6F742055555053 PUSH1 0x90 SHL PUSH1 0x64 DUP3 ADD MSTORE PUSH1 0x84 ADD PUSH2 0x5F3 JUMP JUMPDEST PUSH32 0x360894A13BA1A3210667C828492DB98DCA3E2076CC3735A920A3CA505D382BBC DUP2 EQ PUSH2 0x1A83 JUMPI PUSH1 0x40 MLOAD PUSH3 0x461BCD PUSH1 0xE5 SHL DUP2 MSTORE PUSH1 0x20 PUSH1 0x4 DUP3 ADD MSTORE PUSH1 0x29 PUSH1 0x24 DUP3 ADD MSTORE PUSH32 0x45524331393637557067726164653A20756E737570706F727465642070726F78 PUSH1 0x44 DUP3 ADD MSTORE PUSH9 0x1A58589B1955555251 PUSH1 0xBA SHL PUSH1 0x64 DUP3 ADD MSTORE PUSH1 0x84 ADD PUSH2 0x5F3 JUMP JUMPDEST POP PUSH2 0x1940 DUP4 DUP4 DUP4 PUSH2 0x1DE1 JUMP JUMPDEST PUSH1 0x33 SLOAD PUSH1 0x1 PUSH1 0x1 PUSH1 0xA0 SHL SUB AND CALLER EQ PUSH2 0xEFF JUMPI PUSH1 0x40 MLOAD PUSH3 0x461BCD PUSH1 0xE5 SHL DUP2 MSTORE PUSH1 0x20 PUSH1 0x4 DUP3 ADD DUP2 SWAP1 MSTORE PUSH1 0x24 DUP3 ADD MSTORE PUSH32 0x4F776E61626C653A2063616C6C6572206973206E6F7420746865206F776E6572 PUSH1 0x44 DUP3 ADD MSTORE PUSH1 0x64 ADD PUSH2 0x5F3 JUMP JUMPDEST PUSH1 0x65 DUP1 SLOAD PUSH1 0x1 PUSH1 0x1 PUSH1 0xA0 SHL SUB NOT AND SWAP1 SSTORE PUSH2 0xAA3 DUP2 PUSH2 0x1E0C JUMP JUMPDEST PUSH1 0x0 SLOAD PUSH2 0x100 SWAP1 DIV PUSH1 0xFF AND PUSH2 0xEFF JUMPI PUSH1 0x40 MLOAD PUSH3 0x461BCD PUSH1 0xE5 SHL DUP2 MSTORE PUSH1 0x4 ADD PUSH2 0x5F3 SWAP1 PUSH2 0x2AA9 JUMP JUMPDEST PUSH1 0x0 SLOAD PUSH2 0x100 SWAP1 DIV PUSH1 0xFF AND PUSH2 0x1B50 JUMPI PUSH1 0x40 MLOAD PUSH3 0x461BCD PUSH1 0xE5 SHL DUP2 MSTORE PUSH1 0x4 ADD PUSH2 0x5F3 SWAP1 PUSH2 0x2AA9 JUMP JUMPDEST PUSH2 0xE16 DUP3 DUP3 PUSH2 0x1E5E JUMP JUMPDEST PUSH1 0x0 DUP1 DUP3 MLOAD PUSH1 0x41 SUB PUSH2 0x1B90 JUMPI PUSH1 0x20 DUP4 ADD MLOAD PUSH1 0x40 DUP5 ADD MLOAD PUSH1 0x60 DUP6 ADD MLOAD PUSH1 0x0 BYTE PUSH2 0x1B84 DUP8 DUP3 DUP6 DUP6 PUSH2 0x1E9F JUMP JUMPDEST SWAP5 POP SWAP5 POP POP POP POP PUSH2 0x1B98 JUMP JUMPDEST POP PUSH1 0x0 SWAP1 POP PUSH1 0x2 JUMPDEST SWAP3 POP SWAP3 SWAP1 POP JUMP JUMPDEST PUSH1 0x0 DUP2 PUSH1 0x4 DUP2 GT ISZERO PUSH2 0x1BB3 JUMPI PUSH2 0x1BB3 PUSH2 0x2AF4 JUMP JUMPDEST SUB PUSH2 0x1BBB JUMPI POP JUMP JUMPDEST PUSH1 0x1 DUP2 PUSH1 0x4 DUP2 GT ISZERO PUSH2 0x1BCF JUMPI PUSH2 0x1BCF PUSH2 0x2AF4 JUMP JUMPDEST SUB PUSH2 0x1C1C JUMPI PUSH1 0x40 MLOAD PUSH3 0x461BCD PUSH1 0xE5 SHL DUP2 MSTORE PUSH1 0x20 PUSH1 0x4 DUP3 ADD MSTORE PUSH1 0x18 PUSH1 0x24 DUP3 ADD MSTORE PUSH32 0x45434453413A20696E76616C6964207369676E61747572650000000000000000 PUSH1 0x44 DUP3 ADD MSTORE PUSH1 0x64 ADD PUSH2 0x5F3 JUMP JUMPDEST PUSH1 0x2 DUP2 PUSH1 0x4 DUP2 GT ISZERO PUSH2 0x1C30 JUMPI PUSH2 0x1C30 PUSH2 0x2AF4 JUMP JUMPDEST SUB PUSH2 0x1C7D JUMPI PUSH1 0x40 MLOAD PUSH3 0x461BCD PUSH1 0xE5 SHL DUP2 MSTORE PUSH1 0x20 PUSH1 0x4 DUP3 ADD MSTORE PUSH1 0x1F PUSH1 0x24 DUP3 ADD MSTORE PUSH32 0x45434453413A20696E76616C6964207369676E6174757265206C656E67746800 PUSH1 0x44 DUP3 ADD MSTORE PUSH1 0x64 ADD PUSH2 0x5F3 JUMP JUMPDEST PUSH1 0x3 DUP2 PUSH1 0x4 DUP2 GT ISZERO PUSH2 0x1C91 JUMPI PUSH2 0x1C91 PUSH2 0x2AF4 JUMP JUMPDEST SUB PUSH2 0xAA3 JUMPI PUSH1 0x40 MLOAD PUSH3 0x461BCD PUSH1 0xE5 SHL DUP2 MSTORE PUSH1 0x20 PUSH1 0x4 DUP3 ADD MSTORE PUSH1 0x22 PUSH1 0x24 DUP3 ADD MSTORE PUSH32 0x45434453413A20696E76616C6964207369676E6174757265202773272076616C PUSH1 0x44 DUP3 ADD MSTORE PUSH2 0x7565 PUSH1 0xF0 SHL PUSH1 0x64 DUP3 ADD MSTORE PUSH1 0x84 ADD PUSH2 0x5F3 JUMP JUMPDEST PUSH1 0x40 DUP1 MLOAD PUSH1 0x20 DUP2 ADD DUP6 SWAP1 MSTORE SWAP1 DUP2 ADD DUP4 SWAP1 MSTORE PUSH1 0x60 DUP2 ADD DUP3 SWAP1 MSTORE CHAINID PUSH1 0x80 DUP3 ADD MSTORE ADDRESS PUSH1 0xA0 DUP3 ADD MSTORE PUSH1 0x0 SWAP1 PUSH1 0xC0 ADD PUSH1 0x40 MLOAD PUSH1 0x20 DUP2 DUP4 SUB SUB DUP2 MSTORE SWAP1 PUSH1 0x40 MSTORE DUP1 MLOAD SWAP1 PUSH1 0x20 ADD KECCAK256 SWAP1 POP JUMPDEST SWAP4 SWAP3 POP POP POP JUMP JUMPDEST PUSH1 0x1 PUSH1 0x1 PUSH1 0xA0 SHL SUB DUP2 AND EXTCODESIZE PUSH2 0x1DA0 JUMPI PUSH1 0x40 MLOAD PUSH3 0x461BCD PUSH1 0xE5 SHL DUP2 MSTORE PUSH1 0x20 PUSH1 0x4 DUP3 ADD MSTORE PUSH1 0x2D PUSH1 0x24 DUP3 ADD MSTORE PUSH32 0x455243313936373A206E657720696D706C656D656E746174696F6E206973206E PUSH1 0x44 DUP3 ADD MSTORE PUSH13 0x1BDD08184818DBDB9D1C9858DD PUSH1 0x9A SHL PUSH1 0x64 DUP3 ADD MSTORE PUSH1 0x84 ADD PUSH2 0x5F3 JUMP JUMPDEST PUSH32 0x360894A13BA1A3210667C828492DB98DCA3E2076CC3735A920A3CA505D382BBC DUP1 SLOAD PUSH1 0x1 PUSH1 0x1 PUSH1 0xA0 SHL SUB NOT AND PUSH1 0x1 PUSH1 0x1 PUSH1 0xA0 SHL SUB SWAP3 SWAP1 SWAP3 AND SWAP2 SWAP1 SWAP2 OR SWAP1 SSTORE JUMP JUMPDEST PUSH2 0x1DEA DUP4 PUSH2 0x1F63 JUMP JUMPDEST PUSH1 0x0 DUP3 MLOAD GT DUP1 PUSH2 0x1DF7 JUMPI POP DUP1 JUMPDEST ISZERO PUSH2 0x1940 JUMPI PUSH2 0x1E06 DUP4 DUP4 PUSH2 0x1FA3 JUMP JUMPDEST POP POP POP POP JUMP JUMPDEST PUSH1 0x33 DUP1 SLOAD PUSH1 0x1 PUSH1 0x1 PUSH1 0xA0 SHL SUB DUP4 DUP2 AND PUSH1 0x1 PUSH1 0x1 PUSH1 0xA0 SHL SUB NOT DUP4 AND DUP2 OR SWAP1 SWAP4 SSTORE PUSH1 0x40 MLOAD SWAP2 AND SWAP2 SWAP1 DUP3 SWAP1 PUSH32 0x8BE0079C531659141344CD1FD0A4F28419497F9722A3DAAFE3B4186F6B6457E0 SWAP1 PUSH1 0x0 SWAP1 LOG3 POP POP JUMP JUMPDEST PUSH1 0x0 SLOAD PUSH2 0x100 SWAP1 DIV PUSH1 0xFF AND PUSH2 0x1E85 JUMPI PUSH1 0x40 MLOAD PUSH3 0x461BCD PUSH1 0xE5 SHL DUP2 MSTORE PUSH1 0x4 ADD PUSH2 0x5F3 SWAP1 PUSH2 0x2AA9 JUMP JUMPDEST DUP2 MLOAD PUSH1 0x20 SWAP3 DUP4 ADD KECCAK256 DUP2 MLOAD SWAP2 SWAP1 SWAP3 ADD KECCAK256 PUSH1 0xFB SWAP2 SWAP1 SWAP2 SSTORE PUSH1 0xFC SSTORE JUMP JUMPDEST PUSH1 0x0 DUP1 PUSH32 0x7FFFFFFFFFFFFFFFFFFFFFFFFFFFFFFF5D576E7357A4501DDFE92F46681B20A0 DUP4 GT ISZERO PUSH2 0x1ED6 JUMPI POP PUSH1 0x0 SWAP1 POP PUSH1 0x3 PUSH2 0x1F5A JUMP JUMPDEST PUSH1 0x40 DUP1 MLOAD PUSH1 0x0 DUP1 DUP3 MSTORE PUSH1 0x20 DUP3 ADD DUP1 DUP5 MSTORE DUP10 SWAP1 MSTORE PUSH1 0xFF DUP9 AND SWAP3 DUP3 ADD SWAP3 SWAP1 SWAP3 MSTORE PUSH1 0x60 DUP2 ADD DUP7 SWAP1 MSTORE PUSH1 0x80 DUP2 ADD DUP6 SWAP1 MSTORE PUSH1 0x1 SWAP1 PUSH1 0xA0 ADD PUSH1 0x20 PUSH1 0x40 MLOAD PUSH1 0x20 DUP2 SUB SWAP1 DUP1 DUP5 SUB SWAP1 DUP6 GAS STATICCALL ISZERO DUP1 ISZERO PUSH2 0x1F2A JUMPI RETURNDATASIZE PUSH1 0x0 DUP1 RETURNDATACOPY RETURNDATASIZE PUSH1 0x0 REVERT JUMPDEST POP POP PUSH1 0x40 MLOAD PUSH1 0x1F NOT ADD MLOAD SWAP2 POP POP PUSH1 0x1 PUSH1 0x1 PUSH1 0xA0 SHL SUB DUP2 AND PUSH2 0x1F53 JUMPI PUSH1 0x0 PUSH1 0x1 SWAP3 POP SWAP3 POP POP PUSH2 0x1F5A JUMP JUMPDEST SWAP2 POP PUSH1 0x0 SWAP1 POP JUMPDEST SWAP5 POP SWAP5 SWAP3 POP POP POP JUMP JUMPDEST PUSH2 0x1F6C DUP2 PUSH2 0x1D33 JUMP JUMPDEST PUSH1 0x40 MLOAD PUSH1 0x1 PUSH1 0x1 PUSH1 0xA0 SHL SUB DUP3 AND SWAP1 PUSH32 0xBC7CD75A20EE27FD9ADEBAB32041F755214DBC6BFFA90CC0225B39DA2E5C2D3B SWAP1 PUSH1 0x0 SWAP1 LOG2 POP JUMP JUMPDEST PUSH1 0x60 PUSH1 0x1 PUSH1 0x1 PUSH1 0xA0 SHL SUB DUP4 AND EXTCODESIZE PUSH2 0x200B JUMPI PUSH1 0x40 MLOAD PUSH3 0x461BCD PUSH1 0xE5 SHL DUP2 MSTORE PUSH1 0x20 PUSH1 0x4 DUP3 ADD MSTORE PUSH1 0x26 PUSH1 0x24 DUP3 ADD MSTORE PUSH32 0x416464726573733A2064656C65676174652063616C6C20746F206E6F6E2D636F PUSH1 0x44 DUP3 ADD MSTORE PUSH6 0x1B9D1C9858DD PUSH1 0xD2 SHL PUSH1 0x64 DUP3 ADD MSTORE PUSH1 0x84 ADD PUSH2 0x5F3 JUMP JUMPDEST PUSH1 0x0 DUP1 DUP5 PUSH1 0x1 PUSH1 0x1 PUSH1 0xA0 SHL SUB AND DUP5 PUSH1 0x40 MLOAD PUSH2 0x2026 SWAP2 SWAP1 PUSH2 0x2B0A JUMP JUMPDEST PUSH1 0x0 PUSH1 0x40 MLOAD DUP1 DUP4 SUB DUP2 DUP6 GAS DELEGATECALL SWAP2 POP POP RETURNDATASIZE DUP1 PUSH1 0x0 DUP2 EQ PUSH2 0x2061 JUMPI PUSH1 0x40 MLOAD SWAP2 POP PUSH1 0x1F NOT PUSH1 0x3F RETURNDATASIZE ADD AND DUP3 ADD PUSH1 0x40 MSTORE RETURNDATASIZE DUP3 MSTORE RETURNDATASIZE PUSH1 0x0 PUSH1 0x20 DUP5 ADD RETURNDATACOPY PUSH2 0x2066 JUMP JUMPDEST PUSH1 0x60 SWAP2 POP JUMPDEST POP SWAP2 POP SWAP2 POP PUSH2 0x208E DUP3 DUP3 PUSH1 0x40 MLOAD DUP1 PUSH1 0x60 ADD PUSH1 0x40 MSTORE DUP1 PUSH1 0x27 DUP2 MSTORE PUSH1 0x20 ADD PUSH2 0x2B27 PUSH1 0x27 SWAP2 CODECOPY PUSH2 0x2097 JUMP JUMPDEST SWAP6 SWAP5 POP POP POP POP POP JUMP JUMPDEST PUSH1 0x60 DUP4 ISZERO PUSH2 0x20A6 JUMPI POP DUP2 PUSH2 0x1D2C JUMP JUMPDEST PUSH2 0x1D2C DUP4 DUP4 DUP2 MLOAD ISZERO PUSH2 0x20BB JUMPI DUP2 MLOAD DUP1 DUP4 PUSH1 0x20 ADD REVERT JUMPDEST DUP1 PUSH1 0x40 MLOAD PUSH3 0x461BCD PUSH1 0xE5 SHL DUP2 MSTORE PUSH1 0x4 ADD PUSH2 0x5F3 SWAP2 SWAP1 PUSH2 0x2125 JUMP JUMPDEST PUSH1 0x0 JUMPDEST DUP4 DUP2 LT ISZERO PUSH2 0x20F0 JUMPI DUP2 DUP2 ADD MLOAD DUP4 DUP3 ADD MSTORE PUSH1 0x20 ADD PUSH2 0x20D8 JUMP JUMPDEST POP POP PUSH1 0x0 SWAP2 ADD MSTORE JUMP JUMPDEST PUSH1 0x0 DUP2 MLOAD DUP1 DUP5 MSTORE PUSH2 0x2111 DUP2 PUSH1 0x20 DUP7 ADD PUSH1 0x20 DUP7 ADD PUSH2 0x20D5 JUMP JUMPDEST PUSH1 0x1F ADD PUSH1 0x1F NOT AND SWAP3 SWAP1 SWAP3 ADD PUSH1 0x20 ADD SWAP3 SWAP2 POP POP JUMP JUMPDEST PUSH1 0x20 DUP2 MSTORE PUSH1 0x0 PUSH2 0x1D2C PUSH1 0x20 DUP4 ADD DUP5 PUSH2 0x20F9 JUMP JUMPDEST PUSH1 0x0 PUSH1 0x20 DUP3 DUP5 SUB SLT ISZERO PUSH2 0x214A JUMPI PUSH1 0x0 DUP1 REVERT JUMPDEST POP CALLDATALOAD SWAP2 SWAP1 POP JUMP JUMPDEST DUP1 CALLDATALOAD PUSH1 0x1 PUSH1 0x1 PUSH1 0xA0 SHL SUB DUP2 AND DUP2 EQ PUSH2 0x2168 JUMPI PUSH1 0x0 DUP1 REVERT JUMPDEST SWAP2 SWAP1 POP JUMP JUMPDEST PUSH4 0x4E487B71 PUSH1 0xE0 SHL PUSH1 0x0 MSTORE PUSH1 0x41 PUSH1 0x4 MSTORE PUSH1 0x24 PUSH1 0x0 REVERT JUMPDEST PUSH1 0x40 MLOAD PUSH1 0x1F DUP3 ADD PUSH1 0x1F NOT AND DUP2 ADD PUSH8 0xFFFFFFFFFFFFFFFF DUP2 GT DUP3 DUP3 LT OR ISZERO PUSH2 0x21AC JUMPI PUSH2 0x21AC PUSH2 0x216D JUMP JUMPDEST PUSH1 0x40 MSTORE SWAP2 SWAP1 POP JUMP JUMPDEST PUSH1 0x0 PUSH8 0xFFFFFFFFFFFFFFFF DUP3 GT ISZERO PUSH2 0x21CE JUMPI PUSH2 0x21CE PUSH2 0x216D JUMP JUMPDEST POP PUSH1 0x5 SHL PUSH1 0x20 ADD SWAP1 JUMP JUMPDEST PUSH1 0x0 DUP3 PUSH1 0x1F DUP4 ADD SLT PUSH2 0x21E9 JUMPI PUSH1 0x0 DUP1 REVERT JUMPDEST DUP2 CALLDATALOAD PUSH1 0x20 PUSH2 0x21FE PUSH2 0x21F9 DUP4 PUSH2 0x21B4 JUMP JUMPDEST PUSH2 0x2183 JUMP JUMPDEST DUP3 DUP2 MSTORE PUSH1 0x5 SWAP3 SWAP1 SWAP3 SHL DUP5 ADD DUP2 ADD SWAP2 DUP2 DUP2 ADD SWAP1 DUP7 DUP5 GT ISZERO PUSH2 0x221D JUMPI PUSH1 0x0 DUP1 REVERT JUMPDEST DUP3 DUP7 ADD JUMPDEST DUP5 DUP2 LT ISZERO PUSH2 0x2238 JUMPI DUP1 CALLDATALOAD DUP4 MSTORE SWAP2 DUP4 ADD SWAP2 DUP4 ADD PUSH2 0x2221 JUMP JUMPDEST POP SWAP7 SWAP6 POP POP POP POP POP POP JUMP JUMPDEST PUSH1 0x0 DUP3 PUSH1 0x1F DUP4 ADD SLT PUSH2 0x2254 JUMPI PUSH1 0x0 DUP1 REVERT JUMPDEST DUP2 CALLDATALOAD PUSH8 0xFFFFFFFFFFFFFFFF DUP2 GT ISZERO PUSH2 0x226E JUMPI PUSH2 0x226E PUSH2 0x216D JUMP JUMPDEST PUSH2 0x2281 PUSH1 0x1F DUP3 ADD PUSH1 0x1F NOT AND PUSH1 0x20 ADD PUSH2 0x2183 JUMP JUMPDEST DUP2 DUP2 MSTORE DUP5 PUSH1 0x20 DUP4 DUP7 ADD ADD GT ISZERO PUSH2 0x2296 JUMPI PUSH1 0x0 DUP1 REVERT JUMPDEST DUP2 PUSH1 0x20 DUP6 ADD PUSH1 0x20 DUP4 ADD CALLDATACOPY PUSH1 0x0 SWAP2 DUP2 ADD PUSH1 0x20 ADD SWAP2 SWAP1 SWAP2 MSTORE SWAP4 SWAP3 POP POP POP JUMP JUMPDEST PUSH1 0x0 DUP3 PUSH1 0x1F DUP4 ADD SLT PUSH2 0x22C4 JUMPI PUSH1 0x0 DUP1 REVERT JUMPDEST DUP2 CALLDATALOAD PUSH1 0x20 PUSH2 0x22D4 PUSH2 0x21F9 DUP4 PUSH2 0x21B4 JUMP JUMPDEST DUP3 DUP2 MSTORE PUSH1 0x5 SWAP3 SWAP1 SWAP3 SHL DUP5 ADD DUP2 ADD SWAP2 DUP2 DUP2 ADD SWAP1 DUP7 DUP5 GT ISZERO PUSH2 0x22F3 JUMPI PUSH1 0x0 DUP1 REVERT JUMPDEST DUP3 DUP7 ADD JUMPDEST DUP5 DUP2 LT ISZERO PUSH2 0x2238 JUMPI DUP1 CALLDATALOAD PUSH8 0xFFFFFFFFFFFFFFFF DUP2 GT ISZERO PUSH2 0x2317 JUMPI PUSH1 0x0 DUP1 DUP2 REVERT JUMPDEST PUSH2 0x2325 DUP10 DUP7 DUP4 DUP12 ADD ADD PUSH2 0x2243 JUMP JUMPDEST DUP5 MSTORE POP SWAP2 DUP4 ADD SWAP2 DUP4 ADD PUSH2 0x22F7 JUMP JUMPDEST PUSH1 0x0 DUP1 PUSH1 0x0 DUP1 PUSH1 0x0 DUP1 PUSH1 0x0 DUP1 PUSH2 0x100 DUP10 DUP12 SUB SLT ISZERO PUSH2 0x2350 JUMPI PUSH1 0x0 DUP1 REVERT JUMPDEST PUSH2 0x2359 DUP10 PUSH2 0x2151 JUMP JUMPDEST SWAP8 POP PUSH1 0x20 DUP10 ADD CALLDATALOAD PUSH8 0xFFFFFFFFFFFFFFFF DUP1 DUP3 GT ISZERO PUSH2 0x2376 JUMPI PUSH1 0x0 DUP1 REVERT JUMPDEST PUSH2 0x2382 DUP13 DUP4 DUP14 ADD PUSH2 0x21D8 JUMP JUMPDEST SWAP9 POP PUSH1 0x40 DUP12 ADD CALLDATALOAD SWAP2 POP DUP1 DUP3 GT ISZERO PUSH2 0x2398 JUMPI PUSH1 0x0 DUP1 REVERT JUMPDEST PUSH2 0x23A4 DUP13 DUP4 DUP14 ADD PUSH2 0x21D8 JUMP JUMPDEST SWAP8 POP PUSH1 0x60 DUP12 ADD CALLDATALOAD SWAP2 POP DUP1 DUP3 GT ISZERO PUSH2 0x23BA JUMPI PUSH1 0x0 DUP1 REVERT JUMPDEST PUSH2 0x23C6 DUP13 DUP4 DUP14 ADD PUSH2 0x2243 JUMP JUMPDEST SWAP7 POP PUSH1 0x80 DUP12 ADD CALLDATALOAD SWAP2 POP DUP1 DUP3 GT ISZERO PUSH2 0x23DC JUMPI PUSH1 0x0 DUP1 REVERT JUMPDEST PUSH2 0x23E8 DUP13 DUP4 DUP14 ADD PUSH2 0x22B3 JUMP JUMPDEST SWAP6 POP PUSH1 0xA0 DUP12 ADD CALLDATALOAD SWAP5 POP PUSH1 0xC0 DUP12 ADD CALLDATALOAD SWAP4 POP PUSH1 0xE0 DUP12 ADD CALLDATALOAD SWAP2 POP DUP1 DUP3 GT ISZERO PUSH2 0x240C JUMPI PUSH1 0x0 DUP1 REVERT JUMPDEST POP PUSH2 0x2419 DUP12 DUP3 DUP13 ADD PUSH2 0x2243 JUMP JUMPDEST SWAP2 POP POP SWAP3 SWAP6 SWAP9 POP SWAP3 SWAP6 SWAP9 SWAP1 SWAP4 SWAP7 POP JUMP JUMPDEST PUSH1 0x0 PUSH1 0x20 DUP3 DUP5 SUB SLT ISZERO PUSH2 0x243B JUMPI PUSH1 0x0 DUP1 REVERT JUMPDEST PUSH2 0x1D2C DUP3 PUSH2 0x2151 JUMP JUMPDEST PUSH1 0x0 DUP1 PUSH1 0x0 DUP1 PUSH1 0x0 DUP1 PUSH1 0x0 DUP1 PUSH2 0x100 DUP10 DUP12 SUB SLT ISZERO PUSH2 0x2461 JUMPI PUSH1 0x0 DUP1 REVERT JUMPDEST PUSH2 0x246A DUP10 PUSH2 0x2151 JUMP JUMPDEST SWAP8 POP PUSH1 0x20 DUP10 ADD CALLDATALOAD SWAP7 POP PUSH1 0x40 DUP10 ADD CALLDATALOAD SWAP6 POP PUSH1 0x60 DUP10 ADD CALLDATALOAD PUSH8 0xFFFFFFFFFFFFFFFF DUP1 DUP3 GT ISZERO PUSH2 0x2495 JUMPI PUSH1 0x0 DUP1 REVERT JUMPDEST PUSH2 0x24A1 DUP13 DUP4 DUP14 ADD PUSH2 0x2243 JUMP JUMPDEST SWAP7 POP PUSH1 0x80 DUP12 ADD CALLDATALOAD SWAP2 POP DUP1 DUP3 GT ISZERO PUSH2 0x24B7 JUMPI PUSH1 0x0 DUP1 REVERT JUMPDEST PUSH2 0x23E8 DUP13 DUP4 DUP14 ADD PUSH2 0x2243 JUMP JUMPDEST PUSH1 0x0 DUP1 PUSH1 0x40 DUP4 DUP6 SUB SLT ISZERO PUSH2 0x24D6 JUMPI PUSH1 0x0 DUP1 REVERT JUMPDEST PUSH2 0x24DF DUP4 PUSH2 0x2151 JUMP JUMPDEST SWAP2 POP PUSH1 0x20 DUP4 ADD CALLDATALOAD PUSH8 0xFFFFFFFFFFFFFFFF DUP2 GT ISZERO PUSH2 0x24FB JUMPI PUSH1 0x0 DUP1 REVERT JUMPDEST PUSH2 0x2507 DUP6 DUP3 DUP7 ADD PUSH2 0x2243 JUMP JUMPDEST SWAP2 POP POP SWAP3 POP SWAP3 SWAP1 POP JUMP JUMPDEST PUSH1 0x0 DUP1 PUSH1 0x0 PUSH1 0x60 DUP5 DUP7 SUB SLT ISZERO PUSH2 0x2526 JUMPI PUSH1 0x0 DUP1 REVERT JUMPDEST DUP4 CALLDATALOAD SWAP3 POP PUSH1 0x20 DUP5 ADD CALLDATALOAD SWAP2 POP PUSH1 0x40 DUP5 ADD CALLDATALOAD PUSH8 0xFFFFFFFFFFFFFFFF DUP2 GT ISZERO PUSH2 0x254B JUMPI PUSH1 0x0 DUP1 REVERT JUMPDEST PUSH2 0x2557 DUP7 DUP3 DUP8 ADD PUSH2 0x2243 JUMP JUMPDEST SWAP2 POP POP SWAP3 POP SWAP3 POP SWAP3 JUMP JUMPDEST PUSH1 0x0 DUP1 PUSH1 0x0 DUP1 PUSH1 0x80 DUP6 DUP8 SUB SLT ISZERO PUSH2 0x2577 JUMPI PUSH1 0x0 DUP1 REVERT JUMPDEST DUP5 CALLDATALOAD PUSH8 0xFFFFFFFFFFFFFFFF DUP1 DUP3 GT ISZERO PUSH2 0x258F JUMPI PUSH1 0x0 DUP1 REVERT JUMPDEST PUSH2 0x259B DUP9 DUP4 DUP10 ADD PUSH2 0x2243 JUMP JUMPDEST SWAP6 POP PUSH1 0x20 DUP8 ADD CALLDATALOAD SWAP2 POP DUP1 DUP3 GT ISZERO PUSH2 0x25B1 JUMPI PUSH1 0x0 DUP1 REVERT JUMPDEST POP PUSH2 0x25BE DUP8 DUP3 DUP9 ADD PUSH2 0x2243 JUMP JUMPDEST SWAP4 POP POP PUSH2 0x25CD PUSH1 0x40 DUP7 ADD PUSH2 0x2151 JUMP JUMPDEST SWAP2 POP PUSH2 0x25DB PUSH1 0x60 DUP7 ADD PUSH2 0x2151 JUMP JUMPDEST SWAP1 POP SWAP3 SWAP6 SWAP2 SWAP5 POP SWAP3 POP JUMP JUMPDEST PUSH1 0x0 DUP1 PUSH1 0x0 PUSH1 0x60 DUP5 DUP7 SUB SLT ISZERO PUSH2 0x25FB JUMPI PUSH1 0x0 DUP1 REVERT JUMPDEST DUP4 CALLDATALOAD PUSH8 0xFFFFFFFFFFFFFFFF DUP1 DUP3 GT ISZERO PUSH2 0x2613 JUMPI PUSH1 0x0 DUP1 REVERT JUMPDEST PUSH2 0x261F DUP8 DUP4 DUP9 ADD PUSH2 0x21D8 JUMP JUMPDEST SWAP5 POP PUSH1 0x20 DUP7 ADD CALLDATALOAD SWAP2 POP DUP1 DUP3 GT ISZERO PUSH2 0x2635 JUMPI PUSH1 0x0 DUP1 REVERT JUMPDEST PUSH2 0x2641 DUP8 DUP4 DUP9 ADD PUSH2 0x21D8 JUMP JUMPDEST SWAP4 POP PUSH1 0x40 DUP7 ADD CALLDATALOAD SWAP2 POP DUP1 DUP3 GT ISZERO PUSH2 0x2657 JUMPI PUSH1 0x0 DUP1 REVERT JUMPDEST POP PUSH2 0x2557 DUP7 DUP3 DUP8 ADD PUSH2 0x2243 JUMP JUMPDEST PUSH1 0x0 DUP1 PUSH1 0x40 DUP4 DUP6 SUB SLT ISZERO PUSH2 0x2677 JUMPI PUSH1 0x0 DUP1 REVERT JUMPDEST DUP3 CALLDATALOAD SWAP2 POP PUSH1 0x20 DUP4 ADD CALLDATALOAD PUSH8 0xFFFFFFFFFFFFFFFF DUP2 GT ISZERO PUSH2 0x24FB JUMPI PUSH1 0x0 DUP1 REVERT JUMPDEST PUSH1 0x1 DUP2 DUP2 SHR SWAP1 DUP3 AND DUP1 PUSH2 0x26A9 JUMPI PUSH1 0x7F DUP3 AND SWAP2 POP JUMPDEST PUSH1 0x20 DUP3 LT DUP2 SUB PUSH2 0x26C9 JUMPI PUSH4 0x4E487B71 PUSH1 0xE0 SHL PUSH1 0x0 MSTORE PUSH1 0x22 PUSH1 0x4 MSTORE PUSH1 0x24 PUSH1 0x0 REVERT JUMPDEST POP SWAP2 SWAP1 POP JUMP JUMPDEST PUSH4 0x4E487B71 PUSH1 0xE0 SHL PUSH1 0x0 MSTORE PUSH1 0x32 PUSH1 0x4 MSTORE PUSH1 0x24 PUSH1 0x0 REVERT JUMPDEST PUSH1 0x0 PUSH1 0x1 DUP3 ADD PUSH2 0x2705 JUMPI PUSH4 0x4E487B71 PUSH1 0xE0 SHL PUSH1 0x0 MSTORE PUSH1 0x11 PUSH1 0x4 MSTORE PUSH1 0x24 PUSH1 0x0 REVERT JUMPDEST POP PUSH1 0x1 ADD SWAP1 JUMP JUMPDEST PUSH1 0x20 DUP1 DUP3 MSTORE PUSH1 0x29 SWAP1 DUP3 ADD MSTORE PUSH32 0x4A61736D696E654D696E7465723A20626164207369676E61747572652F77726F PUSH1 0x40 DUP3 ADD MSTORE PUSH9 0x37339039B4B3B732B9 PUSH1 0xB9 SHL PUSH1 0x60 DUP3 ADD MSTORE PUSH1 0x80 ADD SWAP1 JUMP JUMPDEST DUP3 DUP2 MSTORE PUSH1 0x40 PUSH1 0x20 DUP3 ADD MSTORE PUSH1 0x0 PUSH2 0x276E PUSH1 0x40 DUP4 ADD DUP5 PUSH2 0x20F9 JUMP JUMPDEST SWAP5 SWAP4 POP POP POP POP JUMP JUMPDEST PUSH1 0x0 DUP2 MLOAD DUP1 DUP5 MSTORE PUSH1 0x20 DUP1 DUP6 ADD SWAP5 POP DUP1 DUP5 ADD PUSH1 0x0 JUMPDEST DUP4 DUP2 LT ISZERO PUSH2 0x27A6 JUMPI DUP2 MLOAD DUP8 MSTORE SWAP6 DUP3 ADD SWAP6 SWAP1 DUP3 ADD SWAP1 PUSH1 0x1 ADD PUSH2 0x278A JUMP JUMPDEST POP SWAP5 SWAP6 SWAP5 POP POP POP POP POP JUMP JUMPDEST PUSH1 0x1 PUSH1 0x1 PUSH1 0xA0 SHL SUB DUP6 AND DUP2 MSTORE PUSH1 0x80 PUSH1 0x20 DUP3 ADD MSTORE PUSH1 0x0 PUSH2 0x27D3 PUSH1 0x80 DUP4 ADD DUP7 PUSH2 0x2776 JUMP JUMPDEST DUP3 DUP2 SUB PUSH1 0x40 DUP5 ADD MSTORE PUSH2 0x27E5 DUP2 DUP7 PUSH2 0x2776 JUMP JUMPDEST SWAP1 POP DUP3 DUP2 SUB PUSH1 0x60 DUP5 ADD MSTORE PUSH2 0x27F9 DUP2 DUP6 PUSH2 0x20F9 JUMP JUMPDEST SWAP8 SWAP7 POP POP POP POP POP POP POP JUMP JUMPDEST PUSH1 0x20 DUP1 DUP3 MSTORE PUSH1 0x2C SWAP1 DUP3 ADD MSTORE PUSH32 0x46756E6374696F6E206D7573742062652063616C6C6564207468726F75676820 PUSH1 0x40 DUP3 ADD MSTORE PUSH12 0x19195B1959D85D1958D85B1B PUSH1 0xA2 SHL PUSH1 0x60 DUP3 ADD MSTORE PUSH1 0x80 ADD SWAP1 JUMP JUMPDEST PUSH1 0x20 DUP1 DUP3 MSTORE PUSH1 0x2C SWAP1 DUP3 ADD MSTORE PUSH32 0x46756E6374696F6E206D7573742062652063616C6C6564207468726F75676820 PUSH1 0x40 DUP3 ADD MSTORE PUSH12 0x6163746976652070726F7879 PUSH1 0xA0 SHL PUSH1 0x60 DUP3 ADD MSTORE PUSH1 0x80 ADD SWAP1 JUMP JUMPDEST PUSH1 0x1 PUSH1 0x1 PUSH1 0xA0 SHL SUB DUP6 AND DUP2 MSTORE DUP4 PUSH1 0x20 DUP3 ADD MSTORE DUP3 PUSH1 0x40 DUP3 ADD MSTORE PUSH1 0x80 PUSH1 0x60 DUP3 ADD MSTORE PUSH1 0x0 PUSH2 0x28CA PUSH1 0x80 DUP4 ADD DUP5 PUSH2 0x20F9 JUMP JUMPDEST SWAP7 SWAP6 POP POP POP POP POP POP JUMP JUMPDEST PUSH1 0x0 PUSH1 0x20 DUP3 DUP5 SUB SLT ISZERO PUSH2 0x28E6 JUMPI PUSH1 0x0 DUP1 REVERT JUMPDEST DUP2 MLOAD DUP1 ISZERO ISZERO DUP2 EQ PUSH2 0x1D2C JUMPI PUSH1 0x0 DUP1 REVERT JUMPDEST DUP4 DUP2 MSTORE DUP3 PUSH1 0x20 DUP3 ADD MSTORE PUSH1 0x60 PUSH1 0x40 DUP3 ADD MSTORE PUSH1 0x0 PUSH2 0x208E PUSH1 0x60 DUP4 ADD DUP5 PUSH2 0x20F9 JUMP JUMPDEST PUSH1 0x1F DUP3 GT ISZERO PUSH2 0x1940 JUMPI PUSH1 0x0 DUP2 DUP2 MSTORE PUSH1 0x20 DUP2 KECCAK256 PUSH1 0x1F DUP6 ADD PUSH1 0x5 SHR DUP2 ADD PUSH1 0x20 DUP7 LT ISZERO PUSH2 0x293C JUMPI POP DUP1 JUMPDEST PUSH1 0x1F DUP6 ADD PUSH1 0x5 SHR DUP3 ADD SWAP2 POP JUMPDEST DUP2 DUP2 LT ISZERO PUSH2 0x295B JUMPI DUP3 DUP2 SSTORE PUSH1 0x1 ADD PUSH2 0x2948 JUMP JUMPDEST POP POP POP POP POP POP JUMP JUMPDEST DUP2 MLOAD PUSH8 0xFFFFFFFFFFFFFFFF DUP2 GT ISZERO PUSH2 0x297D JUMPI PUSH2 0x297D PUSH2 0x216D JUMP JUMPDEST PUSH2 0x2991 DUP2 PUSH2 0x298B DUP5 SLOAD PUSH2 0x2695 JUMP JUMPDEST DUP5 PUSH2 0x2915 JUMP JUMPDEST PUSH1 0x20 DUP1 PUSH1 0x1F DUP4 GT PUSH1 0x1 DUP2 EQ PUSH2 0x29C6 JUMPI PUSH1 0x0 DUP5 ISZERO PUSH2 0x29AE JUMPI POP DUP6 DUP4 ADD MLOAD JUMPDEST PUSH1 0x0 NOT PUSH1 0x3 DUP7 SWAP1 SHL SHR NOT AND PUSH1 0x1 DUP6 SWAP1 SHL OR DUP6 SSTORE PUSH2 0x295B JUMP JUMPDEST PUSH1 0x0 DUP6 DUP2 MSTORE PUSH1 0x20 DUP2 KECCAK256 PUSH1 0x1F NOT DUP7 AND SWAP2 JUMPDEST DUP3 DUP2 LT ISZERO PUSH2 0x29F5 JUMPI DUP9 DUP7 ADD MLOAD DUP3 SSTORE SWAP5 DUP5 ADD SWAP5 PUSH1 0x1 SWAP1 SWAP2 ADD SWAP1 DUP5 ADD PUSH2 0x29D6 JUMP JUMPDEST POP DUP6 DUP3 LT ISZERO PUSH2 0x2A13 JUMPI DUP8 DUP6 ADD MLOAD PUSH1 0x0 NOT PUSH1 0x3 DUP9 SWAP1 SHL PUSH1 0xF8 AND SHR NOT AND DUP2 SSTORE JUMPDEST POP POP POP POP POP PUSH1 0x1 SWAP1 DUP2 SHL ADD SWAP1 SSTORE POP JUMP JUMPDEST PUSH1 0x60 DUP2 MSTORE PUSH1 0x0 PUSH2 0x2A36 PUSH1 0x60 DUP4 ADD DUP7 PUSH2 0x2776 JUMP JUMPDEST DUP3 DUP2 SUB PUSH1 0x20 DUP5 ADD MSTORE PUSH2 0x2A48 DUP2 DUP7 PUSH2 0x2776 JUMP JUMPDEST SWAP1 POP DUP3 DUP2 SUB PUSH1 0x40 DUP5 ADD MSTORE PUSH2 0x28CA DUP2 DUP6 PUSH2 0x20F9 JUMP JUMPDEST PUSH1 0x1 PUSH1 0x1 PUSH1 0xA0 SHL SUB DUP5 AND DUP2 MSTORE PUSH1 0x60 PUSH1 0x20 DUP3 ADD MSTORE PUSH1 0x0 PUSH2 0x2A7E PUSH1 0x60 DUP4 ADD DUP6 PUSH2 0x2776 JUMP JUMPDEST DUP3 DUP2 SUB PUSH1 0x40 DUP5 ADD MSTORE PUSH2 0x28CA DUP2 DUP6 PUSH2 0x2776 JUMP JUMPDEST PUSH1 0x0 PUSH1 0x20 DUP3 DUP5 SUB SLT ISZERO PUSH2 0x2AA2 JUMPI PUSH1 0x0 DUP1 REVERT JUMPDEST POP MLOAD SWAP2 SWAP1 POP JUMP JUMPDEST PUSH1 0x20 DUP1 DUP3 MSTORE PUSH1 0x2B SWAP1 DUP3 ADD MSTORE PUSH32 0x496E697469616C697A61626C653A20636F6E7472616374206973206E6F742069 PUSH1 0x40 DUP3 ADD MSTORE PUSH11 0x6E697469616C697A696E67 PUSH1 0xA8 SHL PUSH1 0x60 DUP3 ADD MSTORE PUSH1 0x80 ADD SWAP1 JUMP JUMPDEST PUSH4 0x4E487B71 PUSH1 0xE0 SHL PUSH1 0x0 MSTORE PUSH1 0x21 PUSH1 0x4 MSTORE PUSH1 0x24 PUSH1 0x0 REVERT JUMPDEST PUSH1 0x0 DUP3 MLOAD PUSH2 0x2B1C DUP2 DUP5 PUSH1 0x20 DUP8 ADD PUSH2 0x20D5 JUMP JUMPDEST SWAP2 SWAP1 SWAP2 ADD SWAP3 SWAP2 POP POP JUMP INVALID COINBASE PUSH5 0x6472657373 GASPRICE KECCAK256 PUSH13 0x6F772D6C6576656C2064656C65 PUSH8 0x6174652063616C6C KECCAK256 PUSH7 0x61696C6564A264 PUSH10 0x706673582212205B160D 0xCE PUSH20 0xB8E2EC7B229BDEE149D3865784095768BCA0AA43 0xED PUSH15 0x8CC42D222464736F6C634300081100 CALLER "},"gasEstimates":{"creation":{"codeDepositCost":"2227800","executionCost":"infinite","totalCost":"infinite"},"external":{"CONSUMENONCE_TYPEHASH()":"328","DOMAIN_SEPARATOR()":"infinite","MINTBATCH_TYPEHASH()":"306","MINT_TYPEHASH()":"283","acceptOwnership()":"infinite","bridge()":"2426","burn(uint256,uint256,bytes)":"infinite","burnBatch(uint256[],uint256[],bytes)":"infinite","consumeNonce(bytes32,bytes)":"infinite","consumedNonces(bytes32)":"2496","initialize(string,string,address,address)":"infinite","mint(address,uint256,uint256,bytes,bytes,uint256,bytes32,bytes)":"infinite","mintBatch(address,uint256[],uint256[],bytes,bytes[],uint256,bytes32,bytes)":"infinite","name()":"infinite","oracle()":"infinite","owner()":"2376","pendingOwner()":"2398","proxiableUUID()":"infinite","renounceOwnership()":"infinite","setBridge(address)":"27941","token()":"infinite","transferOwnership(address)":"30481","upgradeTo(address)":"infinite","upgradeToAndCall(address,bytes)":"infinite","version()":"infinite"},"internal":{"_authorizeUpgrade(address)":"infinite","_hashArray(uint256[] memory)":"infinite"}},"methodIdentifiers":{"CONSUMENONCE_TYPEHASH()":"ce89a040","DOMAIN_SEPARATOR()":"3644e515","MINTBATCH_TYPEHASH()":"b3c9ed59","MINT_TYPEHASH()":"f76fc35e","acceptOwnership()":"79ba5097","bridge()":"e78cea92","burn(uint256,uint256,bytes)":"80a5a371","burnBatch(uint256[],uint256[],bytes)":"e090fa3c","consumeNonce(bytes32,bytes)":"e922ba79","consumedNonces(bytes32)":"10dbebce","initialize(string,string,address,address)":"8f15b414","mint(address,uint256,uint256,bytes,bytes,uint256,bytes32,bytes)":"36b09227","mintBatch(address,uint256[],uint256[],bytes,bytes[],uint256,bytes32,bytes)":"163c50ac","name()":"06fdde03","oracle()":"7dc0d1d0","owner()":"8da5cb5b","pendingOwner()":"e30c3978","proxiableUUID()":"52d1902d","renounceOwnership()":"715018a6","setBridge(address)":"8dd14802","token()":"fc0c546a","transferOwnership(address)":"f2fde38b","upgradeTo(address)":"3659cfe6","upgradeToAndCall(address,bytes)":"4f1ef286","version()":"54fd4d50"}},"storageLayout":{"storage":[{"astId":633,"contract":"src/JasmineMinter.sol:JasmineMinter","label":"_initialized","offset":0,"slot":"0","type":"t_uint8"},{"astId":636,"contract":"src/JasmineMinter.sol:JasmineMinter","label":"_initializing","offset":1,"slot":"0","type":"t_bool"},{"astId":2945,"contract":"src/JasmineMinter.sol:JasmineMinter","label":"__gap","offset":0,"slot":"1","type":"t_array(t_uint256)50_storage"},{"astId":116,"contract":"src/JasmineMinter.sol:JasmineMinter","label":"_owner","offset":0,"slot":"51","type":"t_address"},{"astId":236,"contract":"src/JasmineMinter.sol:JasmineMinter","label":"__gap","offset":0,"slot":"52","type":"t_array(t_uint256)49_storage"},{"astId":25,"contract":"src/JasmineMinter.sol:JasmineMinter","label":"_pendingOwner","offset":0,"slot":"101","type":"t_address"},{"astId":104,"contract":"src/JasmineMinter.sol:JasmineMinter","label":"__gap","offset":0,"slot":"102","type":"t_array(t_uint256)49_storage"},{"astId":615,"contract":"src/JasmineMinter.sol:JasmineMinter","label":"__gap","offset":0,"slot":"151","type":"t_array(t_uint256)50_storage"},{"astId":930,"contract":"src/JasmineMinter.sol:JasmineMinter","label":"__gap","offset":0,"slot":"201","type":"t_array(t_uint256)50_storage"},{"astId":3551,"contract":"src/JasmineMinter.sol:JasmineMinter","label":"_HASHED_NAME","offset":0,"slot":"251","type":"t_bytes32"},{"astId":3553,"contract":"src/JasmineMinter.sol:JasmineMinter","label":"_HASHED_VERSION","offset":0,"slot":"252","type":"t_bytes32"},{"astId":3691,"contract":"src/JasmineMinter.sol:JasmineMinter","label":"__gap","offset":0,"slot":"253","type":"t_array(t_uint256)50_storage"},{"astId":5348,"contract":"src/JasmineMinter.sol:JasmineMinter","label":"bridge","offset":0,"slot":"303","type":"t_address"},{"astId":5372,"contract":"src/JasmineMinter.sol:JasmineMinter","label":"name","offset":0,"slot":"304","type":"t_string_storage"},{"astId":5375,"contract":"src/JasmineMinter.sol:JasmineMinter","label":"version","offset":0,"slot":"305","type":"t_string_storage"},{"astId":5380,"contract":"src/JasmineMinter.sol:JasmineMinter","label":"consumedNonces","offset":0,"slot":"306","type":"t_mapping(t_bytes32,t_bool)"},{"astId":5917,"contract":"src/JasmineMinter.sol:JasmineMinter","label":"__gap","offset":0,"slot":"307","type":"t_array(t_uint256)50_storage"}],"types":{"t_address":{"encoding":"inplace","label":"address","numberOfBytes":"20"},"t_array(t_uint256)49_storage":{"base":"t_uint256","encoding":"inplace","label":"uint256[49]","numberOfBytes":"1568"},"t_array(t_uint256)50_storage":{"base":"t_uint256","encoding":"inplace","label":"uint256[50]","numberOfBytes":"1600"},"t_bool":{"encoding":"inplace","label":"bool","numberOfBytes":"1"},"t_bytes32":{"encoding":"inplace","label":"bytes32","numberOfBytes":"32"},"t_mapping(t_bytes32,t_bool)":{"encoding":"mapping","key":"t_bytes32","label":"mapping(bytes32 => bool)","numberOfBytes":"32","value":"t_bool"},"t_string_storage":{"encoding":"bytes","label":"string","numberOfBytes":"32"},"t_uint256":{"encoding":"inplace","label":"uint256","numberOfBytes":"32"},"t_uint8":{"encoding":"inplace","label":"uint8","numberOfBytes":"1"}}},"userdoc":{"kind":"user","methods":{"DOMAIN_SEPARATOR()":{"notice":"This is the EIP712 domain separator. It is exposed here for ease of introspection."},"burn(uint256,uint256,bytes)":{"notice":"Used in both redemption and bridge-off flows."},"burnBatch(uint256[],uint256[],bytes)":{"notice":"Used in both redemption and bridge-off flows."},"consumeNonce(bytes32,bytes)":{"notice":"Used to invalidate a nonce embedded in another EIP712 minting authorization."},"consumedNonces(bytes32)":{"notice":"Whether a particular nonce has been used to prevent replay."},"mint(address,uint256,uint256,bytes,bytes,uint256,bytes32,bytes)":{"notice":"Mint a new EAT.Only callable by the address specified in the EIP712 mint authoriztaion."},"mintBatch(address,uint256[],uint256[],bytes,bytes[],uint256,bytes32,bytes)":{"notice":"Mint a new EAT.Only callable by the address specified in the EIP712 mint authoriztaion."},"setBridge(address)":{"notice":"When the bridge wallet/EOA is migrated, the owner updates the bridge address."}},"notice":"This contract is responsible for validating that the bridge has authorized an EAT mint.This contract also updates the oracle with EAT metadata during each mint.","version":1}}}}